{
  "_format": "hh-sol-artifact-1",
  "contractName": "LiquidityPro",
  "sourceName": "contracts/LiquidityPro.sol",
  "abi": [
    {
      "inputs": [
        {
          "internalType": "contract IUniswapV3Factory",
          "name": "_factory",
          "type": "address"
        },
        {
          "internalType": "contract INonfungiblePositionManager",
          "name": "_nonfungiblePositionManager",
          "type": "address"
        },
        {
          "internalType": "contract IUniswapV3Pool",
          "name": "_pool",
          "type": "address"
        }
      ],
      "stateMutability": "nonpayable",
      "type": "constructor"
    },
    {
      "inputs": [
        {
          "internalType": "address",
          "name": "_tokenAddress",
          "type": "address"
        },
        {
          "internalType": "uint256",
          "name": "_amount",
          "type": "uint256"
        }
      ],
      "name": "deposit",
      "outputs": [],
      "stateMutability": "nonpayable",
      "type": "function"
    },
    {
      "inputs": [
        {
          "internalType": "address",
          "name": "tokenAddress",
          "type": "address"
        }
      ],
      "name": "getBalance",
      "outputs": [
        {
          "internalType": "uint256",
          "name": "tokenAmount",
          "type": "uint256"
        }
      ],
      "stateMutability": "view",
      "type": "function"
    },
    {
      "inputs": [],
      "name": "getEthBalance",
      "outputs": [
        {
          "internalType": "uint256",
          "name": "",
          "type": "uint256"
        }
      ],
      "stateMutability": "view",
      "type": "function"
    },
    {
      "inputs": [],
      "name": "getToken0",
      "outputs": [
        {
          "internalType": "address",
          "name": "",
          "type": "address"
        }
      ],
      "stateMutability": "view",
      "type": "function"
    },
    {
      "inputs": [],
      "name": "getToken1",
      "outputs": [
        {
          "internalType": "address",
          "name": "",
          "type": "address"
        }
      ],
      "stateMutability": "view",
      "type": "function"
    },
    {
      "inputs": [],
      "name": "getTokenBalance",
      "outputs": [
        {
          "internalType": "uint256",
          "name": "",
          "type": "uint256"
        }
      ],
      "stateMutability": "view",
      "type": "function"
    },
    {
      "inputs": [],
      "name": "getTotalLiquidity",
      "outputs": [
        {
          "internalType": "uint256",
          "name": "",
          "type": "uint256"
        }
      ],
      "stateMutability": "view",
      "type": "function"
    },
    {
      "inputs": [],
      "name": "getWethBalance",
      "outputs": [
        {
          "internalType": "uint256",
          "name": "",
          "type": "uint256"
        }
      ],
      "stateMutability": "view",
      "type": "function"
    },
    {
      "inputs": [
        {
          "components": [
            {
              "internalType": "address",
              "name": "token0",
              "type": "address"
            },
            {
              "internalType": "address",
              "name": "token1",
              "type": "address"
            },
            {
              "internalType": "uint24",
              "name": "fee",
              "type": "uint24"
            },
            {
              "internalType": "int24",
              "name": "tickLower",
              "type": "int24"
            },
            {
              "internalType": "int24",
              "name": "tickUpper",
              "type": "int24"
            },
            {
              "internalType": "uint256",
              "name": "amount0Desired",
              "type": "uint256"
            },
            {
              "internalType": "uint256",
              "name": "amount1Desired",
              "type": "uint256"
            },
            {
              "internalType": "uint256",
              "name": "amount0Min",
              "type": "uint256"
            },
            {
              "internalType": "uint256",
              "name": "amount1Min",
              "type": "uint256"
            },
            {
              "internalType": "address",
              "name": "recipient",
              "type": "address"
            },
            {
              "internalType": "uint256",
              "name": "deadline",
              "type": "uint256"
            }
          ],
          "internalType": "struct INonfungiblePositionManager.MintParams",
          "name": "params",
          "type": "tuple"
        }
      ],
      "name": "mintPosition",
      "outputs": [
        {
          "internalType": "uint256",
          "name": "tokenId",
          "type": "uint256"
        },
        {
          "internalType": "uint128",
          "name": "liquidity",
          "type": "uint128"
        },
        {
          "internalType": "uint256",
          "name": "amount0",
          "type": "uint256"
        },
        {
          "internalType": "uint256",
          "name": "amount1",
          "type": "uint256"
        }
      ],
      "stateMutability": "nonpayable",
      "type": "function"
    },
    {
      "inputs": [],
      "name": "totalLiquidity",
      "outputs": [
        {
          "internalType": "uint128",
          "name": "",
          "type": "uint128"
        }
      ],
      "stateMutability": "view",
      "type": "function"
    },
    {
      "inputs": [],
      "name": "vaultTokenId",
      "outputs": [
        {
          "internalType": "uint256",
          "name": "",
          "type": "uint256"
        }
      ],
      "stateMutability": "view",
      "type": "function"
    },
    {
      "inputs": [],
      "name": "withdraw",
      "outputs": [],
      "stateMutability": "nonpayable",
      "type": "function"
    },
    {
      "stateMutability": "payable",
      "type": "receive"
    }
  ],
  "bytecode": "0x608060405273c02aaa39b223fe8d0a0e5c4f27ead9083c756cc2600560006101000a81548173ffffffffffffffffffffffffffffffffffffffff021916908373ffffffffffffffffffffffffffffffffffffffff1602179055503480156200006657600080fd5b50604051620021243803806200212483398181016040528101906200008c919062000319565b620000d76040518060400160405280601681526020017f4465706c6f79696e67204c697175697469647950726f00000000000000000000815250620001a260201b620010e71760201c565b826000806101000a81548173ffffffffffffffffffffffffffffffffffffffff021916908373ffffffffffffffffffffffffffffffffffffffff16021790555081600160006101000a81548173ffffffffffffffffffffffffffffffffffffffff021916908373ffffffffffffffffffffffffffffffffffffffff16021790555080600260006101000a81548173ffffffffffffffffffffffffffffffffffffffff021916908373ffffffffffffffffffffffffffffffffffffffff1602179055505050506200042d565b620002a8816040516024018080602001828103825283818151815260200191508051906020019080838360005b83811015620001ec578082015181840152602081019050620001cf565b50505050905090810190601f1680156200021a5780820380516001836020036101000a031916815260200191505b50925050506040516020818303038152906040527f41304fac000000000000000000000000000000000000000000000000000000007bffffffffffffffffffffffffffffffffffffffffffffffffffffffff19166020820180517bffffffffffffffffffffffffffffffffffffffffffffffffffffffff8381831617835250505050620002ab60201b60201c565b50565b60008151905060006a636f6e736f6c652e6c6f679050602083016000808483855afa5050505050565b600081519050620002e581620003df565b92915050565b600081519050620002fc81620003f9565b92915050565b600081519050620003138162000413565b92915050565b6000806000606084860312156200032f57600080fd5b60006200033f86828701620002eb565b93505060206200035286828701620002d4565b9250506040620003658682870162000302565b9150509250925092565b60006200037c82620003bf565b9050919050565b600062000390826200036f565b9050919050565b6000620003a4826200036f565b9050919050565b6000620003b8826200036f565b9050919050565b600073ffffffffffffffffffffffffffffffffffffffff82169050919050565b620003ea8162000383565b8114620003f657600080fd5b50565b620004048162000397565b81146200041057600080fd5b50565b6200041e81620003ab565b81146200042a57600080fd5b50565b611ce7806200043d6000396000f3fe6080604052600436106100ab5760003560e01c806370ed0ada1161006457806370ed0ada146102ea57806382b2e257146103155780639dd58b5814610340578063ba94a3151461036b578063f657a7fe14610396578063f8b2cb4f146103c1576101e4565b806315770f92146101e957806335c7e925146102145780633ccfd60b1461023f57806347e7ef24146102565780635f1ee5c41461027f5780636f26a710146102bf576101e4565b366101e457600560009054906101000a900473ffffffffffffffffffffffffffffffffffffffff1673ffffffffffffffffffffffffffffffffffffffff1663d0e30db0346040518263ffffffff1660e01b81526004016000604051808303818588803b15801561011a57600080fd5b505af115801561012e573d6000803e3d6000fd5b505050505034600860003373ffffffffffffffffffffffffffffffffffffffff1673ffffffffffffffffffffffffffffffffffffffff1681526020019081526020016000206000016000600560009054906101000a900473ffffffffffffffffffffffffffffffffffffffff1673ffffffffffffffffffffffffffffffffffffffff1673ffffffffffffffffffffffffffffffffffffffff16815260200190815260200160002060008282540192505081905550005b600080fd5b3480156101f557600080fd5b506101fe6103fe565b60405161020b9190611ac3565b60405180910390f35b34801561022057600080fd5b50610229610420565b6040516102369190611ade565b60405180910390f35b34801561024b57600080fd5b50610254610458565b005b34801561026257600080fd5b5061027d6004803603810190610278919061165f565b61073a565b005b34801561028b57600080fd5b506102a660048036038101906102a191906116c4565b6108b1565b6040516102b69493929190611af9565b60405180910390f35b3480156102cb57600080fd5b506102d4610b8a565b6040516102e191906119db565b60405180910390f35b3480156102f657600080fd5b506102ff610c31565b60405161030c9190611ade565b60405180910390f35b34801561032157600080fd5b5061032a610c39565b6040516103379190611ade565b60405180910390f35b34801561034c57600080fd5b50610355610eff565b6040516103629190611ade565b60405180910390f35b34801561037757600080fd5b50610380610fb1565b60405161038d91906119db565b60405180910390f35b3480156103a257600080fd5b506103ab611058565b6040516103b89190611ade565b60405180910390f35b3480156103cd57600080fd5b506103e860048036038101906103e3919061160d565b61105e565b6040516103f59190611ade565b60405180910390f35b600660009054906101000a90046fffffffffffffffffffffffffffffffff1681565b6000600660009054906101000a90046fffffffffffffffffffffffffffffffff166fffffffffffffffffffffffffffffffff16905090565b6104996040518060400160405280600c81526020017f7661756c74546f6b656e496400000000000000000000000000000000000000008152506007546111e5565b6105086040518060400160405280600f81526020017f746f74616c204c69717569646974790000000000000000000000000000000000815250600660009054906101000a90046fffffffffffffffffffffffffffffffff166fffffffffffffffffffffffffffffffff166111e5565b60006040518060a001604052806007548152602001600660009054906101000a90046fffffffffffffffffffffffffffffffff166fffffffffffffffffffffffffffffffff16815260200160008152602001600081526020016201518042018152509050600080600160009054906101000a900473ffffffffffffffffffffffffffffffffffffffff1673ffffffffffffffffffffffffffffffffffffffff16630c49ccbe846040518263ffffffff1660e01b81526004016105ca9190611a8c565b6040805180830381600087803b1580156105e357600080fd5b505af11580156105f7573d6000803e3d6000fd5b505050506040513d601f19601f8201168201806040525081019061061b919061177a565b915091506000604051806080016040528060075481526020013073ffffffffffffffffffffffffffffffffffffffff168152602001846fffffffffffffffffffffffffffffffff168152602001836fffffffffffffffffffffffffffffffff168152509050600160009054906101000a900473ffffffffffffffffffffffffffffffffffffffff1673ffffffffffffffffffffffffffffffffffffffff1663fc6f7865826040518263ffffffff1660e01b81526004016106db9190611a71565b6040805180830381600087803b1580156106f457600080fd5b505af1158015610708573d6000803e3d6000fd5b505050506040513d601f19601f8201168201806040525081019061072c919061177a565b809350819450505050505050565b6107786040518060400160405280600781526020017f6465706f736974000000000000000000000000000000000000000000000000008152506110e7565b610781826112ec565b61078a8161139b565b60008290508073ffffffffffffffffffffffffffffffffffffffff166323b872dd3330856040518463ffffffff1660e01b81526004016107cc93929190611a11565b602060405180830381600087803b1580156107e657600080fd5b505af11580156107fa573d6000803e3d6000fd5b505050506040513d601f19601f8201168201806040525081019061081e919061169b565b5081600860003373ffffffffffffffffffffffffffffffffffffffff1673ffffffffffffffffffffffffffffffffffffffff16815260200190815260200160002060000160008573ffffffffffffffffffffffffffffffffffffffff1673ffffffffffffffffffffffffffffffffffffffff16815260200190815260200160002060008282540192505081905550505050565b6000806000806108bf610fb1565b73ffffffffffffffffffffffffffffffffffffffff1663095ea7b3600160009054906101000a900473ffffffffffffffffffffffffffffffffffffffff167fffffffffffffffffffffffffffffffffffffffffffffffffffffffffffffffff6040518363ffffffff1660e01b815260040161093b929190611a48565b602060405180830381600087803b15801561095557600080fd5b505af1158015610969573d6000803e3d6000fd5b505050506040513d601f19601f8201168201806040525081019061098d919061169b565b50610996610b8a565b73ffffffffffffffffffffffffffffffffffffffff1663095ea7b3600160009054906101000a900473ffffffffffffffffffffffffffffffffffffffff167fffffffffffffffffffffffffffffffffffffffffffffffffffffffffffffffff6040518363ffffffff1660e01b8152600401610a12929190611a48565b602060405180830381600087803b158015610a2c57600080fd5b505af1158015610a40573d6000803e3d6000fd5b505050506040513d601f19601f82011682018060405250810190610a64919061169b565b50600160009054906101000a900473ffffffffffffffffffffffffffffffffffffffff1673ffffffffffffffffffffffffffffffffffffffff166388316456866040518263ffffffff1660e01b8152600401610ac09190611aa7565b608060405180830381600087803b158015610ada57600080fd5b505af1158015610aee573d6000803e3d6000fd5b505050506040513d601f19601f82011682018060405250810190610b129190611717565b8094508195508296508397505050505082600660008282829054906101000a90046fffffffffffffffffffffffffffffffff160192506101000a8154816fffffffffffffffffffffffffffffffff02191690836fffffffffffffffffffffffffffffffff160217905550836007819055509193509193565b6000600260009054906101000a900473ffffffffffffffffffffffffffffffffffffffff1673ffffffffffffffffffffffffffffffffffffffff1663d21220a76040518163ffffffff1660e01b815260040160206040518083038186803b158015610bf457600080fd5b505afa158015610c08573d6000803e3d6000fd5b505050506040513d601f19601f82011682018060405250810190610c2c9190611636565b905090565b600047905090565b60008073c02aaa39b223fe8d0a0e5c4f27ead9083c756cc273ffffffffffffffffffffffffffffffffffffffff16600260009054906101000a900473ffffffffffffffffffffffffffffffffffffffff1673ffffffffffffffffffffffffffffffffffffffff16630dfe16816040518163ffffffff1660e01b815260040160206040518083038186803b158015610ccf57600080fd5b505afa158015610ce3573d6000803e3d6000fd5b505050506040513d601f19601f82011682018060405250810190610d079190611636565b73ffffffffffffffffffffffffffffffffffffffff1614610dc757600260009054906101000a900473ffffffffffffffffffffffffffffffffffffffff1673ffffffffffffffffffffffffffffffffffffffff16630dfe16816040518163ffffffff1660e01b815260040160206040518083038186803b158015610d8a57600080fd5b505afa158015610d9e573d6000803e3d6000fd5b505050506040513d601f19601f82011682018060405250810190610dc29190611636565b610e68565b600260009054906101000a900473ffffffffffffffffffffffffffffffffffffffff1673ffffffffffffffffffffffffffffffffffffffff1663d21220a76040518163ffffffff1660e01b815260040160206040518083038186803b158015610e2f57600080fd5b505afa158015610e43573d6000803e3d6000fd5b505050506040513d601f19601f82011682018060405250810190610e679190611636565b5b905060008173ffffffffffffffffffffffffffffffffffffffff166370a08231306040518263ffffffff1660e01b8152600401610ea591906119f6565b60206040518083038186803b158015610ebd57600080fd5b505afa158015610ed1573d6000803e3d6000fd5b505050506040513d601f19601f82011682018060405250810190610ef591906116ee565b9050809250505090565b6000600560009054906101000a900473ffffffffffffffffffffffffffffffffffffffff1673ffffffffffffffffffffffffffffffffffffffff166370a08231306040518263ffffffff1660e01b8152600401610f5c91906119f6565b60206040518083038186803b158015610f7457600080fd5b505afa158015610f88573d6000803e3d6000fd5b505050506040513d601f19601f82011682018060405250810190610fac91906116ee565b905090565b6000600260009054906101000a900473ffffffffffffffffffffffffffffffffffffffff1673ffffffffffffffffffffffffffffffffffffffff16630dfe16816040518163ffffffff1660e01b815260040160206040518083038186803b15801561101b57600080fd5b505afa15801561102f573d6000803e3d6000fd5b505050506040513d601f19601f820116820180604052508101906110539190611636565b905090565b60075481565b6000600860003373ffffffffffffffffffffffffffffffffffffffff1673ffffffffffffffffffffffffffffffffffffffff16815260200190815260200160002060000160008373ffffffffffffffffffffffffffffffffffffffff1673ffffffffffffffffffffffffffffffffffffffff168152602001908152602001600020549050919050565b6111e2816040516024018080602001828103825283818151815260200191508051906020019080838360005b8381101561112e578082015181840152602081019050611113565b50505050905090810190601f16801561115b5780820380516001836020036101000a031916815260200191505b50925050506040516020818303038152906040527f41304fac000000000000000000000000000000000000000000000000000000007bffffffffffffffffffffffffffffffffffffffffffffffffffffffff19166020820180517bffffffffffffffffffffffffffffffffffffffffffffffffffffffff8381831617835250505050611434565b50565b6112e882826040516024018080602001838152602001828103825284818151815260200191508051906020019080838360005b83811015611233578082015181840152602081019050611218565b50505050905090810190601f1680156112605780820380516001836020036101000a031916815260200191505b5093505050506040516020818303038152906040527f9710a9d0000000000000000000000000000000000000000000000000000000007bffffffffffffffffffffffffffffffffffffffffffffffffffffffff19166020820180517bffffffffffffffffffffffffffffffffffffffffffffffffffffffff8381831617835250505050611434565b5050565b61139881604051602401808273ffffffffffffffffffffffffffffffffffffffff1681526020019150506040516020818303038152906040527f2c2ecbc2000000000000000000000000000000000000000000000000000000007bffffffffffffffffffffffffffffffffffffffffffffffffffffffff19166020820180517bffffffffffffffffffffffffffffffffffffffffffffffffffffffff8381831617835250505050611434565b50565b61143181604051602401808281526020019150506040516020818303038152906040527ff5b1bba9000000000000000000000000000000000000000000000000000000007bffffffffffffffffffffffffffffffffffffffffffffffffffffffff19166020820180517bffffffffffffffffffffffffffffffffffffffffffffffffffffffff8381831617835250505050611434565b50565b60008151905060006a636f6e736f6c652e6c6f679050602083016000808483855afa5050505050565b60008135905061146c81611c27565b92915050565b60008151905061148181611c27565b92915050565b60008151905061149681611c3e565b92915050565b6000813590506114ab81611c55565b92915050565b600061016082840312156114c457600080fd5b6114cf610160611b3e565b905060006114df8482850161145d565b60008301525060206114f38482850161145d565b6020830152506040611507848285016115ce565b604083015250606061151b8482850161149c565b606083015250608061152f8482850161149c565b60808301525060a0611543848285016115e3565b60a08301525060c0611557848285016115e3565b60c08301525060e061156b848285016115e3565b60e083015250610100611580848285016115e3565b610100830152506101206115968482850161145d565b610120830152506101406115ac848285016115e3565b6101408301525092915050565b6000815190506115c881611c6c565b92915050565b6000813590506115dd81611c83565b92915050565b6000813590506115f281611c9a565b92915050565b60008151905061160781611c9a565b92915050565b60006020828403121561161f57600080fd5b600061162d8482850161145d565b91505092915050565b60006020828403121561164857600080fd5b600061165684828501611472565b91505092915050565b6000806040838503121561167257600080fd5b60006116808582860161145d565b9250506020611691858286016115e3565b9150509250929050565b6000602082840312156116ad57600080fd5b60006116bb84828501611487565b91505092915050565b600061016082840312156116d757600080fd5b60006116e5848285016114b1565b91505092915050565b60006020828403121561170057600080fd5b600061170e848285016115f8565b91505092915050565b6000806000806080858703121561172d57600080fd5b600061173b878288016115f8565b945050602061174c878288016115b9565b935050604061175d878288016115f8565b925050606061176e878288016115f8565b91505092959194509250565b6000806040838503121561178d57600080fd5b600061179b858286016115f8565b92505060206117ac858286016115f8565b9150509250929050565b6117bf81611bef565b82525050565b6117ce81611b6f565b82525050565b6117dd81611b6f565b82525050565b6117ec81611b8d565b82525050565b60808201600082015161180860008501826119bd565b50602082015161181b60208501826117c5565b50604082015161182e6040850182611990565b5060608201516118416060850182611990565b50505050565b60a08201600082015161185d60008501826119bd565b5060208201516118706020850182611990565b50604082015161188360408501826119bd565b50606082015161189660608501826119bd565b5060808201516118a960808501826119bd565b50505050565b610160820160008201516118c660008501826117c5565b5060208201516118d960208501826117c5565b5060408201516118ec60408501826119ae565b5060608201516118ff60608501826117e3565b50608082015161191260808501826117e3565b5060a082015161192560a08501826119bd565b5060c082015161193860c08501826119bd565b5060e082015161194b60e08501826119bd565b506101008201516119606101008501826119bd565b506101208201516119756101208501826117c5565b5061014082015161198a6101408501826119bd565b50505050565b61199981611b9a565b82525050565b6119a881611b9a565b82525050565b6119b781611bd6565b82525050565b6119c681611be5565b82525050565b6119d581611be5565b82525050565b60006020820190506119f060008301846117d4565b92915050565b6000602082019050611a0b60008301846117b6565b92915050565b6000606082019050611a2660008301866117b6565b611a3360208301856117b6565b611a4060408301846119cc565b949350505050565b6000604082019050611a5d60008301856117d4565b611a6a60208301846119cc565b9392505050565b6000608082019050611a8660008301846117f2565b92915050565b600060a082019050611aa16000830184611847565b92915050565b600061016082019050611abd60008301846118af565b92915050565b6000602082019050611ad8600083018461199f565b92915050565b6000602082019050611af360008301846119cc565b92915050565b6000608082019050611b0e60008301876119cc565b611b1b602083018661199f565b611b2860408301856119cc565b611b3560608301846119cc565b95945050505050565b6000604051905081810181811067ffffffffffffffff82111715611b6557611b64611c25565b5b8060405250919050565b6000611b7a82611bb6565b9050919050565b60008115159050919050565b60008160020b9050919050565b60006fffffffffffffffffffffffffffffffff82169050919050565b600073ffffffffffffffffffffffffffffffffffffffff82169050919050565b600062ffffff82169050919050565b6000819050919050565b6000611bfa82611c01565b9050919050565b6000611c0c82611c13565b9050919050565b6000611c1e82611bb6565b9050919050565bfe5b611c3081611b6f565b8114611c3b57600080fd5b50565b611c4781611b81565b8114611c5257600080fd5b50565b611c5e81611b8d565b8114611c6957600080fd5b50565b611c7581611b9a565b8114611c8057600080fd5b50565b611c8c81611bd6565b8114611c9757600080fd5b50565b611ca381611be5565b8114611cae57600080fd5b5056fea2646970667358221220c0db459ae1f4fa091c9abed52c527c2cc2e84adee5d879647073c9b930c9f60064736f6c63430007060033",
  "linkReferences": {},
  "deployedLinkReferences": {}
}