{
  "_format": "hh-sol-artifact-1",
  "contractName": "UnifiVault",
  "sourceName": "contracts/UnifiVault.sol",
  "abi": [
    {
      "inputs": [
        {
          "internalType": "contract IUniswapV3Factory",
          "name": "_factory",
          "type": "address"
        },
        {
          "internalType": "contract INonfungiblePositionManager",
          "name": "_nonfungiblePositionManager",
          "type": "address"
        },
        {
          "internalType": "contract IUniswapV3Pool",
          "name": "_pool",
          "type": "address"
        }
      ],
      "stateMutability": "nonpayable",
      "type": "constructor"
    },
    {
      "inputs": [
        {
          "components": [
            {
              "internalType": "uint256",
              "name": "tokenId",
              "type": "uint256"
            },
            {
              "internalType": "uint256",
              "name": "amount0Desired",
              "type": "uint256"
            },
            {
              "internalType": "uint256",
              "name": "amount1Desired",
              "type": "uint256"
            },
            {
              "internalType": "uint256",
              "name": "amount0Min",
              "type": "uint256"
            },
            {
              "internalType": "uint256",
              "name": "amount1Min",
              "type": "uint256"
            },
            {
              "internalType": "uint256",
              "name": "deadline",
              "type": "uint256"
            }
          ],
          "internalType": "struct INonfungiblePositionManager.IncreaseLiquidityParams",
          "name": "params",
          "type": "tuple"
        }
      ],
      "name": "addLiquidity",
      "outputs": [
        {
          "internalType": "uint128",
          "name": "liquidity",
          "type": "uint128"
        },
        {
          "internalType": "uint256",
          "name": "amount0",
          "type": "uint256"
        },
        {
          "internalType": "uint256",
          "name": "amount1",
          "type": "uint256"
        }
      ],
      "stateMutability": "nonpayable",
      "type": "function"
    },
    {
      "inputs": [
        {
          "internalType": "uint256",
          "name": "amountIn",
          "type": "uint256"
        }
      ],
      "name": "addLiquidityEth",
      "outputs": [],
      "stateMutability": "payable",
      "type": "function"
    },
    {
      "inputs": [
        {
          "internalType": "address",
          "name": "_tokenAddress",
          "type": "address"
        },
        {
          "internalType": "uint256",
          "name": "_amount",
          "type": "uint256"
        }
      ],
      "name": "deposit",
      "outputs": [],
      "stateMutability": "nonpayable",
      "type": "function"
    },
    {
      "inputs": [],
      "name": "ethPrice",
      "outputs": [
        {
          "internalType": "uint256",
          "name": "",
          "type": "uint256"
        }
      ],
      "stateMutability": "view",
      "type": "function"
    },
    {
      "inputs": [
        {
          "internalType": "address",
          "name": "tokenAddress",
          "type": "address"
        }
      ],
      "name": "getBalance",
      "outputs": [
        {
          "internalType": "uint256",
          "name": "tokenAmount",
          "type": "uint256"
        }
      ],
      "stateMutability": "view",
      "type": "function"
    },
    {
      "inputs": [],
      "name": "getEthBalance",
      "outputs": [
        {
          "internalType": "uint256",
          "name": "",
          "type": "uint256"
        }
      ],
      "stateMutability": "view",
      "type": "function"
    },
    {
      "inputs": [],
      "name": "getToken0",
      "outputs": [
        {
          "internalType": "address",
          "name": "",
          "type": "address"
        }
      ],
      "stateMutability": "view",
      "type": "function"
    },
    {
      "inputs": [],
      "name": "getToken1",
      "outputs": [
        {
          "internalType": "address",
          "name": "",
          "type": "address"
        }
      ],
      "stateMutability": "view",
      "type": "function"
    },
    {
      "inputs": [],
      "name": "getTokenBalance",
      "outputs": [
        {
          "internalType": "uint256",
          "name": "",
          "type": "uint256"
        }
      ],
      "stateMutability": "view",
      "type": "function"
    },
    {
      "inputs": [],
      "name": "getTotalLiquidity",
      "outputs": [
        {
          "internalType": "uint256",
          "name": "",
          "type": "uint256"
        }
      ],
      "stateMutability": "view",
      "type": "function"
    },
    {
      "inputs": [
        {
          "internalType": "address",
          "name": "tokenAddress",
          "type": "address"
        }
      ],
      "name": "getVaultBalance",
      "outputs": [
        {
          "internalType": "uint256",
          "name": "",
          "type": "uint256"
        }
      ],
      "stateMutability": "view",
      "type": "function"
    },
    {
      "inputs": [],
      "name": "getWethBalance",
      "outputs": [
        {
          "internalType": "uint256",
          "name": "",
          "type": "uint256"
        }
      ],
      "stateMutability": "view",
      "type": "function"
    },
    {
      "inputs": [
        {
          "components": [
            {
              "internalType": "address",
              "name": "token0",
              "type": "address"
            },
            {
              "internalType": "address",
              "name": "token1",
              "type": "address"
            },
            {
              "internalType": "uint24",
              "name": "fee",
              "type": "uint24"
            },
            {
              "internalType": "int24",
              "name": "tickLower",
              "type": "int24"
            },
            {
              "internalType": "int24",
              "name": "tickUpper",
              "type": "int24"
            },
            {
              "internalType": "uint256",
              "name": "amount0Desired",
              "type": "uint256"
            },
            {
              "internalType": "uint256",
              "name": "amount1Desired",
              "type": "uint256"
            },
            {
              "internalType": "uint256",
              "name": "amount0Min",
              "type": "uint256"
            },
            {
              "internalType": "uint256",
              "name": "amount1Min",
              "type": "uint256"
            },
            {
              "internalType": "address",
              "name": "recipient",
              "type": "address"
            },
            {
              "internalType": "uint256",
              "name": "deadline",
              "type": "uint256"
            }
          ],
          "internalType": "struct INonfungiblePositionManager.MintParams",
          "name": "params",
          "type": "tuple"
        }
      ],
      "name": "mintPosition",
      "outputs": [
        {
          "internalType": "uint256",
          "name": "tokenId",
          "type": "uint256"
        },
        {
          "internalType": "uint128",
          "name": "liquidity",
          "type": "uint128"
        },
        {
          "internalType": "uint256",
          "name": "amount0",
          "type": "uint256"
        },
        {
          "internalType": "uint256",
          "name": "amount1",
          "type": "uint256"
        }
      ],
      "stateMutability": "nonpayable",
      "type": "function"
    },
    {
      "inputs": [],
      "name": "priceToken0",
      "outputs": [
        {
          "internalType": "uint256",
          "name": "",
          "type": "uint256"
        }
      ],
      "stateMutability": "view",
      "type": "function"
    },
    {
      "inputs": [],
      "name": "requiredAmount0",
      "outputs": [
        {
          "internalType": "uint256",
          "name": "",
          "type": "uint256"
        }
      ],
      "stateMutability": "view",
      "type": "function"
    },
    {
      "inputs": [],
      "name": "requiredAmount1",
      "outputs": [
        {
          "internalType": "uint256",
          "name": "",
          "type": "uint256"
        }
      ],
      "stateMutability": "view",
      "type": "function"
    },
    {
      "inputs": [],
      "name": "totalLiquidity",
      "outputs": [
        {
          "internalType": "uint128",
          "name": "",
          "type": "uint128"
        }
      ],
      "stateMutability": "view",
      "type": "function"
    },
    {
      "inputs": [],
      "name": "updateWethPrice",
      "outputs": [],
      "stateMutability": "nonpayable",
      "type": "function"
    },
    {
      "inputs": [],
      "name": "vaultTokenId",
      "outputs": [
        {
          "internalType": "uint256",
          "name": "",
          "type": "uint256"
        }
      ],
      "stateMutability": "view",
      "type": "function"
    },
    {
      "inputs": [],
      "name": "withdraw",
      "outputs": [],
      "stateMutability": "nonpayable",
      "type": "function"
    },
    {
      "inputs": [
        {
          "internalType": "address",
          "name": "tokenAddress",
          "type": "address"
        },
        {
          "internalType": "uint256",
          "name": "amountIn",
          "type": "uint256"
        }
      ],
      "name": "zapToken",
      "outputs": [],
      "stateMutability": "nonpayable",
      "type": "function"
    },
    {
      "stateMutability": "payable",
      "type": "receive"
    }
  ],
  "bytecode": "0x608060405273b27308f9f90d607463bb33ea1bebb41c27ce5ab6600360006101000a81548173ffffffffffffffffffffffffffffffffffffffff021916908373ffffffffffffffffffffffffffffffffffffffff16021790555073e592427a0aece92de3edee1f18e0157c05861564600460006101000a81548173ffffffffffffffffffffffffffffffffffffffff021916908373ffffffffffffffffffffffffffffffffffffffff16021790555073c02aaa39b223fe8d0a0e5c4f27ead9083c756cc2600560006101000a81548173ffffffffffffffffffffffffffffffffffffffff021916908373ffffffffffffffffffffffffffffffffffffffff1602179055503480156200011057600080fd5b50604051620037bc380380620037bc8339818101604052810190620001369190620003c3565b620001816040518060400160405280601681526020017f4465706c6f79696e67204c697175697469647950726f000000000000000000008152506200024c60201b620021da1760201c565b826000806101000a81548173ffffffffffffffffffffffffffffffffffffffff021916908373ffffffffffffffffffffffffffffffffffffffff16021790555081600160006101000a81548173ffffffffffffffffffffffffffffffffffffffff021916908373ffffffffffffffffffffffffffffffffffffffff16021790555080600260006101000a81548173ffffffffffffffffffffffffffffffffffffffff021916908373ffffffffffffffffffffffffffffffffffffffff160217905550505050620004d7565b62000352816040516024018080602001828103825283818151815260200191508051906020019080838360005b838110156200029657808201518184015260208101905062000279565b50505050905090810190601f168015620002c45780820380516001836020036101000a031916815260200191505b50925050506040516020818303038152906040527f41304fac000000000000000000000000000000000000000000000000000000007bffffffffffffffffffffffffffffffffffffffffffffffffffffffff19166020820180517bffffffffffffffffffffffffffffffffffffffffffffffffffffffff83818316178352505050506200035560201b60201c565b50565b60008151905060006a636f6e736f6c652e6c6f679050602083016000808483855afa5050505050565b6000815190506200038f8162000489565b92915050565b600081519050620003a681620004a3565b92915050565b600081519050620003bd81620004bd565b92915050565b600080600060608486031215620003d957600080fd5b6000620003e98682870162000395565b9350506020620003fc868287016200037e565b92505060406200040f86828701620003ac565b9150509250925092565b6000620004268262000469565b9050919050565b60006200043a8262000419565b9050919050565b60006200044e8262000419565b9050919050565b6000620004628262000419565b9050919050565b600073ffffffffffffffffffffffffffffffffffffffff82169050919050565b62000494816200042d565b8114620004a057600080fd5b50565b620004ae8162000441565b8114620004ba57600080fd5b50565b620004c88162000455565b8114620004d457600080fd5b50565b6132d580620004e76000396000f3fe60806040526004361061012e5760003560e01c806382b2e257116100ab578063ba94a3151161006f578063ba94a315146104df578063d3d7c0021461050a578063f657a7fe14610547578063f8b2cb4f14610572578063f8e80d86146105af578063ff186b2e146105da57610267565b806382b2e2571461042d57806391a8ae9f146104585780639dd58b5814610481578063a6c9ef98146104ac578063abfb8dc2146104c857610267565b806347e7ef24116100f257806347e7ef24146103435780635f1ee5c41461036c5780636f26a710146103ac57806370ed0ada146103d757806372ff22a01461040257610267565b806315770f921461026c57806328f70549146102975780632f45d9b1146102c257806335c7e925146103015780633ccfd60b1461032c57610267565b3661026757600560009054906101000a900473ffffffffffffffffffffffffffffffffffffffff1673ffffffffffffffffffffffffffffffffffffffff1663d0e30db0346040518263ffffffff1660e01b81526004016000604051808303818588803b15801561019d57600080fd5b505af11580156101b1573d6000803e3d6000fd5b505050505034600c60003373ffffffffffffffffffffffffffffffffffffffff1673ffffffffffffffffffffffffffffffffffffffff1681526020019081526020016000206000016000600560009054906101000a900473ffffffffffffffffffffffffffffffffffffffff1673ffffffffffffffffffffffffffffffffffffffff1673ffffffffffffffffffffffffffffffffffffffff16815260200190815260200160002060008282540192505081905550005b600080fd5b34801561027857600080fd5b50610281610605565b60405161028e919061307a565b60405180910390f35b3480156102a357600080fd5b506102ac610627565b6040516102b991906130cc565b60405180910390f35b3480156102ce57600080fd5b506102e960048036038101906102e491906129dd565b61062d565b6040516102f893929190613095565b60405180910390f35b34801561030d57600080fd5b5061031661074c565b60405161032391906130cc565b60405180910390f35b34801561033857600080fd5b50610341610784565b005b34801561034f57600080fd5b5061036a60048036038101906103659190612978565b610a61565b005b34801561037857600080fd5b50610393600480360381019061038e9190612a06565b610bd8565b6040516103a394939291906130e7565b60405180910390f35b3480156103b857600080fd5b506103c1610ebf565b6040516103ce9190612f08565b60405180910390f35b3480156103e357600080fd5b506103ec610f66565b6040516103f991906130cc565b60405180910390f35b34801561040e57600080fd5b50610417610f6e565b60405161042491906130cc565b60405180910390f35b34801561043957600080fd5b50610442610f74565b60405161044f91906130cc565b60405180910390f35b34801561046457600080fd5b5061047f600480360381019061047a9190612978565b61123a565b005b34801561048d57600080fd5b506104966116eb565b6040516104a391906130cc565b60405180910390f35b6104c660048036038101906104c19190612aa8565b61179d565b005b3480156104d457600080fd5b506104dd611d55565b005b3480156104eb57600080fd5b506104f4612006565b6040516105019190612f08565b60405180910390f35b34801561051657600080fd5b50610531600480360381019061052c9190612926565b6120ad565b60405161053e91906130cc565b60405180910390f35b34801561055357600080fd5b5061055c61213f565b60405161056991906130cc565b60405180910390f35b34801561057e57600080fd5b5061059960048036038101906105949190612926565b612145565b6040516105a691906130cc565b60405180910390f35b3480156105bb57600080fd5b506105c46121ce565b6040516105d191906130cc565b60405180910390f35b3480156105e657600080fd5b506105ef6121d4565b6040516105fc91906130cc565b60405180910390f35b600660009054906101000a90046fffffffffffffffffffffffffffffffff1681565b60095481565b6000806000600160009054906101000a900473ffffffffffffffffffffffffffffffffffffffff1673ffffffffffffffffffffffffffffffffffffffff1663219f5d17856040518263ffffffff1660e01b815260040161068d9190613043565b606060405180830381600087803b1580156106a757600080fd5b505af11580156106bb573d6000803e3d6000fd5b505050506040513d601f19601f820116820180604052508101906106df9190612a30565b80935081945082955050505082600660008282829054906101000a90046fffffffffffffffffffffffffffffffff160192506101000a8154816fffffffffffffffffffffffffffffffff02191690836fffffffffffffffffffffffffffffffff1602179055509193909250565b6000600660009054906101000a90046fffffffffffffffffffffffffffffffff166fffffffffffffffffffffffffffffffff16905090565b6107c56040518060400160405280600c81526020017f7661756c74546f6b656e496400000000000000000000000000000000000000008152506007546122d8565b6108346040518060400160405280600f81526020017f746f74616c204c69717569646974790000000000000000000000000000000000815250600660009054906101000a90046fffffffffffffffffffffffffffffffff166fffffffffffffffffffffffffffffffff166122d8565b60006040518060a001604052806007548152602001600660009054906101000a90046fffffffffffffffffffffffffffffffff166fffffffffffffffffffffffffffffffff1681526020016000815260200160008152602001428152509050600080600160009054906101000a900473ffffffffffffffffffffffffffffffffffffffff1673ffffffffffffffffffffffffffffffffffffffff16630c49ccbe846040518263ffffffff1660e01b81526004016108f1919061300c565b6040805180830381600087803b15801561090a57600080fd5b505af115801561091e573d6000803e3d6000fd5b505050506040513d601f19601f820116820180604052508101906109429190612b5d565b915091506000604051806080016040528060075481526020013073ffffffffffffffffffffffffffffffffffffffff168152602001846fffffffffffffffffffffffffffffffff168152602001836fffffffffffffffffffffffffffffffff168152509050600160009054906101000a900473ffffffffffffffffffffffffffffffffffffffff1673ffffffffffffffffffffffffffffffffffffffff1663fc6f7865826040518263ffffffff1660e01b8152600401610a029190612ff1565b6040805180830381600087803b158015610a1b57600080fd5b505af1158015610a2f573d6000803e3d6000fd5b505050506040513d601f19601f82011682018060405250810190610a539190612b5d565b809350819450505050505050565b610a9f6040518060400160405280600781526020017f6465706f736974000000000000000000000000000000000000000000000000008152506121da565b610aa8826123df565b610ab18161248e565b60008290508073ffffffffffffffffffffffffffffffffffffffff166323b872dd3330856040518463ffffffff1660e01b8152600401610af393929190612f3e565b602060405180830381600087803b158015610b0d57600080fd5b505af1158015610b21573d6000803e3d6000fd5b505050506040513d601f19601f82011682018060405250810190610b4591906129b4565b5081600c60003373ffffffffffffffffffffffffffffffffffffffff1673ffffffffffffffffffffffffffffffffffffffff16815260200190815260200160002060000160008573ffffffffffffffffffffffffffffffffffffffff1673ffffffffffffffffffffffffffffffffffffffff16815260200190815260200160002060008282540192505081905550505050565b600080600080610be6612006565b73ffffffffffffffffffffffffffffffffffffffff1663095ea7b3600160009054906101000a900473ffffffffffffffffffffffffffffffffffffffff167fffffffffffffffffffffffffffffffffffffffffffffffffffffffffffffffff6040518363ffffffff1660e01b8152600401610c62929190612fc8565b602060405180830381600087803b158015610c7c57600080fd5b505af1158015610c90573d6000803e3d6000fd5b505050506040513d601f19601f82011682018060405250810190610cb491906129b4565b50610cbd610ebf565b73ffffffffffffffffffffffffffffffffffffffff1663095ea7b3600160009054906101000a900473ffffffffffffffffffffffffffffffffffffffff167fffffffffffffffffffffffffffffffffffffffffffffffffffffffffffffffff6040518363ffffffff1660e01b8152600401610d39929190612fc8565b602060405180830381600087803b158015610d5357600080fd5b505af1158015610d67573d6000803e3d6000fd5b505050506040513d601f19601f82011682018060405250810190610d8b91906129b4565b50600160009054906101000a900473ffffffffffffffffffffffffffffffffffffffff1673ffffffffffffffffffffffffffffffffffffffff166388316456866040518263ffffffff1660e01b8152600401610de7919061305e565b608060405180830381600087803b158015610e0157600080fd5b505af1158015610e15573d6000803e3d6000fd5b505050506040513d601f19601f82011682018060405250810190610e399190612afa565b8094508195508296508397505050505082600660008282829054906101000a90046fffffffffffffffffffffffffffffffff160192506101000a8154816fffffffffffffffffffffffffffffffff02191690836fffffffffffffffffffffffffffffffff160217905550836007819055508160098190555080600a819055509193509193565b6000600260009054906101000a900473ffffffffffffffffffffffffffffffffffffffff1673ffffffffffffffffffffffffffffffffffffffff1663d21220a76040518163ffffffff1660e01b815260040160206040518083038186803b158015610f2957600080fd5b505afa158015610f3d573d6000803e3d6000fd5b505050506040513d601f19601f82011682018060405250810190610f61919061294f565b905090565b600047905090565b60085481565b60008073c02aaa39b223fe8d0a0e5c4f27ead9083c756cc273ffffffffffffffffffffffffffffffffffffffff16600260009054906101000a900473ffffffffffffffffffffffffffffffffffffffff1673ffffffffffffffffffffffffffffffffffffffff16630dfe16816040518163ffffffff1660e01b815260040160206040518083038186803b15801561100a57600080fd5b505afa15801561101e573d6000803e3d6000fd5b505050506040513d601f19601f82011682018060405250810190611042919061294f565b73ffffffffffffffffffffffffffffffffffffffff161461110257600260009054906101000a900473ffffffffffffffffffffffffffffffffffffffff1673ffffffffffffffffffffffffffffffffffffffff16630dfe16816040518163ffffffff1660e01b815260040160206040518083038186803b1580156110c557600080fd5b505afa1580156110d9573d6000803e3d6000fd5b505050506040513d601f19601f820116820180604052508101906110fd919061294f565b6111a3565b600260009054906101000a900473ffffffffffffffffffffffffffffffffffffffff1673ffffffffffffffffffffffffffffffffffffffff1663d21220a76040518163ffffffff1660e01b815260040160206040518083038186803b15801561116a57600080fd5b505afa15801561117e573d6000803e3d6000fd5b505050506040513d601f19601f820116820180604052508101906111a2919061294f565b5b905060008173ffffffffffffffffffffffffffffffffffffffff166370a08231306040518263ffffffff1660e01b81526004016111e09190612f23565b60206040518083038186803b1580156111f857600080fd5b505afa15801561120c573d6000803e3d6000fd5b505050506040513d601f19601f820116820180604052508101906112309190612ad1565b9050809250505090565b600560009054906101000a900473ffffffffffffffffffffffffffffffffffffffff1673ffffffffffffffffffffffffffffffffffffffff1663095ea7b3600460009054906101000a900473ffffffffffffffffffffffffffffffffffffffff16836040518363ffffffff1660e01b81526004016112b9929190612fc8565b602060405180830381600087803b1580156112d357600080fd5b505af11580156112e7573d6000803e3d6000fd5b505050506040513d601f19601f8201168201806040525081019061130b91906129b4565b5060006040518061010001604052808473ffffffffffffffffffffffffffffffffffffffff168152602001600560009054906101000a900473ffffffffffffffffffffffffffffffffffffffff1673ffffffffffffffffffffffffffffffffffffffff168573ffffffffffffffffffffffffffffffffffffffff161461143057600260009054906101000a900473ffffffffffffffffffffffffffffffffffffffff1673ffffffffffffffffffffffffffffffffffffffff1663d21220a76040518163ffffffff1660e01b815260040160206040518083038186803b1580156113f357600080fd5b505afa158015611407573d6000803e3d6000fd5b505050506040513d601f19601f8201168201806040525081019061142b919061294f565b6114d1565b600260009054906101000a900473ffffffffffffffffffffffffffffffffffffffff1673ffffffffffffffffffffffffffffffffffffffff16630dfe16816040518163ffffffff1660e01b815260040160206040518083038186803b15801561149857600080fd5b505afa1580156114ac573d6000803e3d6000fd5b505050506040513d601f19601f820116820180604052508101906114d0919061294f565b5b73ffffffffffffffffffffffffffffffffffffffff168152602001600260009054906101000a900473ffffffffffffffffffffffffffffffffffffffff1673ffffffffffffffffffffffffffffffffffffffff1663ddca3f436040518163ffffffff1660e01b815260040160206040518083038186803b15801561155457600080fd5b505afa158015611568573d6000803e3d6000fd5b505050506040513d601f19601f8201168201806040525081019061158c9190612a7f565b62ffffff1681526020013073ffffffffffffffffffffffffffffffffffffffff16815260200142815260200183815260200160008152602001600073ffffffffffffffffffffffffffffffffffffffff1681525090506000600460009054906101000a900473ffffffffffffffffffffffffffffffffffffffff1673ffffffffffffffffffffffffffffffffffffffff1663414bf389836040518263ffffffff1660e01b815260040161163f9190613027565b602060405180830381600087803b15801561165957600080fd5b505af115801561166d573d6000803e3d6000fd5b505050506040513d601f19601f820116820180604052508101906116919190612ad1565b905061169c8161248e565b60006040518060c0016040528060075481526020018381526020016116bf6116eb565b815260200160008152602001600081526020014281525090506116e18161062d565b5050505050505050565b6000600560009054906101000a900473ffffffffffffffffffffffffffffffffffffffff1673ffffffffffffffffffffffffffffffffffffffff166370a08231306040518263ffffffff1660e01b81526004016117489190612f23565b60206040518083038186803b15801561176057600080fd5b505afa158015611774573d6000803e3d6000fd5b505050506040513d601f19601f820116820180604052508101906117989190612ad1565b905090565b600560009054906101000a900473ffffffffffffffffffffffffffffffffffffffff1673ffffffffffffffffffffffffffffffffffffffff1663d0e30db0346040518263ffffffff1660e01b81526004016000604051808303818588803b15801561180757600080fd5b505af115801561181b573d6000803e3d6000fd5b5050505050600560009054906101000a900473ffffffffffffffffffffffffffffffffffffffff1673ffffffffffffffffffffffffffffffffffffffff1663095ea7b3600460009054906101000a900473ffffffffffffffffffffffffffffffffffffffff16836040518363ffffffff1660e01b815260040161189f929190612fc8565b602060405180830381600087803b1580156118b957600080fd5b505af11580156118cd573d6000803e3d6000fd5b505050506040513d601f19601f820116820180604052508101906118f191906129b4565b506000604051806101000160405280600260009054906101000a900473ffffffffffffffffffffffffffffffffffffffff1673ffffffffffffffffffffffffffffffffffffffff1663d21220a76040518163ffffffff1660e01b815260040160206040518083038186803b15801561196857600080fd5b505afa15801561197c573d6000803e3d6000fd5b505050506040513d601f19601f820116820180604052508101906119a0919061294f565b73ffffffffffffffffffffffffffffffffffffffff168152602001600260009054906101000a900473ffffffffffffffffffffffffffffffffffffffff1673ffffffffffffffffffffffffffffffffffffffff16630dfe16816040518163ffffffff1660e01b815260040160206040518083038186803b158015611a2357600080fd5b505afa158015611a37573d6000803e3d6000fd5b505050506040513d601f19601f82011682018060405250810190611a5b919061294f565b73ffffffffffffffffffffffffffffffffffffffff168152602001600260009054906101000a900473ffffffffffffffffffffffffffffffffffffffff1673ffffffffffffffffffffffffffffffffffffffff1663ddca3f436040518163ffffffff1660e01b815260040160206040518083038186803b158015611ade57600080fd5b505afa158015611af2573d6000803e3d6000fd5b505050506040513d601f19601f82011682018060405250810190611b169190612a7f565b62ffffff1681526020013073ffffffffffffffffffffffffffffffffffffffff16815260200142815260200183815260200160008152602001600073ffffffffffffffffffffffffffffffffffffffff1681525090506000600460009054906101000a900473ffffffffffffffffffffffffffffffffffffffff1673ffffffffffffffffffffffffffffffffffffffff1663414bf389836040518263ffffffff1660e01b8152600401611bc99190613027565b602060405180830381600087803b158015611be357600080fd5b505af1158015611bf7573d6000803e3d6000fd5b505050506040513d601f19601f82011682018060405250810190611c1b9190612ad1565b9050611c926040518060400160405280600881526020017f7377617070656420000000000000000000000000000000000000000000000000815250846040518060400160405280600381526020017f6574680000000000000000000000000000000000000000000000000000000000815250612527565b611d076040518060400160405280600981526020017f7265636569766564200000000000000000000000000000000000000000000000815250826040518060400160405280600481526020017f7573646300000000000000000000000000000000000000000000000000000000815250612527565b60006040518060c001604052806007548152602001838152602001611d2a6116eb565b81526020016000815260200160008152602001428152509050611d4c8161062d565b50505050505050565b6000670de0b6b3a764000090506000600260009054906101000a900473ffffffffffffffffffffffffffffffffffffffff1673ffffffffffffffffffffffffffffffffffffffff1663ddca3f436040518163ffffffff1660e01b815260040160206040518083038186803b158015611dcc57600080fd5b505afa158015611de0573d6000803e3d6000fd5b505050506040513d601f19601f82011682018060405250810190611e049190612a7f565b90506000600360009054906101000a900473ffffffffffffffffffffffffffffffffffffffff1673ffffffffffffffffffffffffffffffffffffffff1663f7729d43600260009054906101000a900473ffffffffffffffffffffffffffffffffffffffff1673ffffffffffffffffffffffffffffffffffffffff1663d21220a76040518163ffffffff1660e01b815260040160206040518083038186803b158015611eae57600080fd5b505afa158015611ec2573d6000803e3d6000fd5b505050506040513d601f19601f82011682018060405250810190611ee6919061294f565b600260009054906101000a900473ffffffffffffffffffffffffffffffffffffffff1673ffffffffffffffffffffffffffffffffffffffff16630dfe16816040518163ffffffff1660e01b815260040160206040518083038186803b158015611f4e57600080fd5b505afa158015611f62573d6000803e3d6000fd5b505050506040513d601f19601f82011682018060405250810190611f86919061294f565b8587866040518663ffffffff1660e01b8152600401611fa9959493929190612f75565b602060405180830381600087803b158015611fc357600080fd5b505af1158015611fd7573d6000803e3d6000fd5b505050506040513d601f19601f82011682018060405250810190611ffb9190612ad1565b600b81905550505050565b6000600260009054906101000a900473ffffffffffffffffffffffffffffffffffffffff1673ffffffffffffffffffffffffffffffffffffffff16630dfe16816040518163ffffffff1660e01b815260040160206040518083038186803b15801561207057600080fd5b505afa158015612084573d6000803e3d6000fd5b505050506040513d601f19601f820116820180604052508101906120a8919061294f565b905090565b60008173ffffffffffffffffffffffffffffffffffffffff166370a08231306040518263ffffffff1660e01b81526004016120e89190612f23565b60206040518083038186803b15801561210057600080fd5b505afa158015612114573d6000803e3d6000fd5b505050506040513d601f19601f820116820180604052508101906121389190612ad1565b9050919050565b60075481565b6000600c60003373ffffffffffffffffffffffffffffffffffffffff1673ffffffffffffffffffffffffffffffffffffffff16815260200190815260200160002060000160008373ffffffffffffffffffffffffffffffffffffffff1673ffffffffffffffffffffffffffffffffffffffff168152602001908152602001600020549050919050565b600a5481565b600b5481565b6122d5816040516024018080602001828103825283818151815260200191508051906020019080838360005b83811015612221578082015181840152602081019050612206565b50505050905090810190601f16801561224e5780820380516001836020036101000a031916815260200191505b50925050506040516020818303038152906040527f41304fac000000000000000000000000000000000000000000000000000000007bffffffffffffffffffffffffffffffffffffffffffffffffffffffff19166020820180517bffffffffffffffffffffffffffffffffffffffffffffffffffffffff838183161783525050505061269c565b50565b6123db82826040516024018080602001838152602001828103825284818151815260200191508051906020019080838360005b8381101561232657808201518184015260208101905061230b565b50505050905090810190601f1680156123535780820380516001836020036101000a031916815260200191505b5093505050506040516020818303038152906040527f9710a9d0000000000000000000000000000000000000000000000000000000007bffffffffffffffffffffffffffffffffffffffffffffffffffffffff19166020820180517bffffffffffffffffffffffffffffffffffffffffffffffffffffffff838183161783525050505061269c565b5050565b61248b81604051602401808273ffffffffffffffffffffffffffffffffffffffff1681526020019150506040516020818303038152906040527f2c2ecbc2000000000000000000000000000000000000000000000000000000007bffffffffffffffffffffffffffffffffffffffffffffffffffffffff19166020820180517bffffffffffffffffffffffffffffffffffffffffffffffffffffffff838183161783525050505061269c565b50565b61252481604051602401808281526020019150506040516020818303038152906040527ff5b1bba9000000000000000000000000000000000000000000000000000000007bffffffffffffffffffffffffffffffffffffffffffffffffffffffff19166020820180517bffffffffffffffffffffffffffffffffffffffffffffffffffffffff838183161783525050505061269c565b50565b612697838383604051602401808060200184815260200180602001838103835286818151815260200191508051906020019080838360005b8381101561257a57808201518184015260208101905061255f565b50505050905090810190601f1680156125a75780820380516001836020036101000a031916815260200191505b50838103825284818151815260200191508051906020019080838360005b838110156125e05780820151818401526020810190506125c5565b50505050905090810190601f16801561260d5780820380516001836020036101000a031916815260200191505b50955050505050506040516020818303038152906040527fa3f5c739000000000000000000000000000000000000000000000000000000007bffffffffffffffffffffffffffffffffffffffffffffffffffffffff19166020820180517bffffffffffffffffffffffffffffffffffffffffffffffffffffffff838183161783525050505061269c565b505050565b60008151905060006a636f6e736f6c652e6c6f679050602083016000808483855afa5050505050565b6000813590506126d481613215565b92915050565b6000815190506126e981613215565b92915050565b6000815190506126fe8161322c565b92915050565b60008135905061271381613243565b92915050565b600060c0828403121561272b57600080fd5b61273560c061312c565b90506000612745848285016128fc565b6000830152506020612759848285016128fc565b602083015250604061276d848285016128fc565b6040830152506060612781848285016128fc565b6060830152506080612795848285016128fc565b60808301525060a06127a9848285016128fc565b60a08301525092915050565b600061016082840312156127c857600080fd5b6127d361016061312c565b905060006127e3848285016126c5565b60008301525060206127f7848285016126c5565b602083015250604061280b848285016128d2565b604083015250606061281f84828501612704565b606083015250608061283384828501612704565b60808301525060a0612847848285016128fc565b60a08301525060c061285b848285016128fc565b60c08301525060e061286f848285016128fc565b60e083015250610100612884848285016128fc565b6101008301525061012061289a848285016126c5565b610120830152506101406128b0848285016128fc565b6101408301525092915050565b6000815190506128cc8161325a565b92915050565b6000813590506128e181613271565b92915050565b6000815190506128f681613271565b92915050565b60008135905061290b81613288565b92915050565b60008151905061292081613288565b92915050565b60006020828403121561293857600080fd5b6000612946848285016126c5565b91505092915050565b60006020828403121561296157600080fd5b600061296f848285016126da565b91505092915050565b6000806040838503121561298b57600080fd5b6000612999858286016126c5565b92505060206129aa858286016128fc565b9150509250929050565b6000602082840312156129c657600080fd5b60006129d4848285016126ef565b91505092915050565b600060c082840312156129ef57600080fd5b60006129fd84828501612719565b91505092915050565b60006101608284031215612a1957600080fd5b6000612a27848285016127b5565b91505092915050565b600080600060608486031215612a4557600080fd5b6000612a53868287016128bd565b9350506020612a6486828701612911565b9250506040612a7586828701612911565b9150509250925092565b600060208284031215612a9157600080fd5b6000612a9f848285016128e7565b91505092915050565b600060208284031215612aba57600080fd5b6000612ac8848285016128fc565b91505092915050565b600060208284031215612ae357600080fd5b6000612af184828501612911565b91505092915050565b60008060008060808587031215612b1057600080fd5b6000612b1e87828801612911565b9450506020612b2f878288016128bd565b9350506040612b4087828801612911565b9250506060612b5187828801612911565b91505092959194509250565b60008060408385031215612b7057600080fd5b6000612b7e85828601612911565b9250506020612b8f85828601612911565b9150509250929050565b612ba2816131dd565b82525050565b612bb18161315d565b82525050565b612bc08161315d565b82525050565b612bcf8161317b565b82525050565b608082016000820151612beb6000850182612eea565b506020820151612bfe6020850182612ba8565b506040820151612c116040850182612e90565b506060820151612c246060850182612e90565b50505050565b60a082016000820151612c406000850182612eea565b506020820151612c536020850182612e90565b506040820151612c666040850182612eea565b506060820151612c796060850182612eea565b506080820151612c8c6080850182612eea565b50505050565b61010082016000820151612ca96000850182612ba8565b506020820151612cbc6020850182612ba8565b506040820151612ccf6040850182612ecc565b506060820151612ce26060850182612ba8565b506080820151612cf56080850182612eea565b5060a0820151612d0860a0850182612eea565b5060c0820151612d1b60c0850182612eea565b5060e0820151612d2e60e0850182612eae565b50505050565b60c082016000820151612d4a6000850182612eea565b506020820151612d5d6020850182612eea565b506040820151612d706040850182612eea565b506060820151612d836060850182612eea565b506080820151612d966080850182612eea565b5060a0820151612da960a0850182612eea565b50505050565b61016082016000820151612dc66000850182612ba8565b506020820151612dd96020850182612ba8565b506040820151612dec6040850182612ecc565b506060820151612dff6060850182612bc6565b506080820151612e126080850182612bc6565b5060a0820151612e2560a0850182612eea565b5060c0820151612e3860c0850182612eea565b5060e0820151612e4b60e0850182612eea565b50610100820151612e60610100850182612eea565b50610120820151612e75610120850182612ba8565b50610140820151612e8a610140850182612eea565b50505050565b612e9981613188565b82525050565b612ea881613188565b82525050565b612eb7816131a4565b82525050565b612ec6816131a4565b82525050565b612ed5816131c4565b82525050565b612ee4816131c4565b82525050565b612ef3816131d3565b82525050565b612f02816131d3565b82525050565b6000602082019050612f1d6000830184612bb7565b92915050565b6000602082019050612f386000830184612b99565b92915050565b6000606082019050612f536000830186612b99565b612f606020830185612b99565b612f6d6040830184612ef9565b949350505050565b600060a082019050612f8a6000830188612bb7565b612f976020830187612bb7565b612fa46040830186612edb565b612fb16060830185612ef9565b612fbe6080830184612ebd565b9695505050505050565b6000604082019050612fdd6000830185612bb7565b612fea6020830184612ef9565b9392505050565b60006080820190506130066000830184612bd5565b92915050565b600060a0820190506130216000830184612c2a565b92915050565b60006101008201905061303d6000830184612c92565b92915050565b600060c0820190506130586000830184612d34565b92915050565b6000610160820190506130746000830184612daf565b92915050565b600060208201905061308f6000830184612e9f565b92915050565b60006060820190506130aa6000830186612e9f565b6130b76020830185612ef9565b6130c46040830184612ef9565b949350505050565b60006020820190506130e16000830184612ef9565b92915050565b60006080820190506130fc6000830187612ef9565b6131096020830186612e9f565b6131166040830185612ef9565b6131236060830184612ef9565b95945050505050565b6000604051905081810181811067ffffffffffffffff8211171561315357613152613213565b5b8060405250919050565b6000613168826131a4565b9050919050565b60008115159050919050565b60008160020b9050919050565b60006fffffffffffffffffffffffffffffffff82169050919050565b600073ffffffffffffffffffffffffffffffffffffffff82169050919050565b600062ffffff82169050919050565b6000819050919050565b60006131e8826131ef565b9050919050565b60006131fa82613201565b9050919050565b600061320c826131a4565b9050919050565bfe5b61321e8161315d565b811461322957600080fd5b50565b6132358161316f565b811461324057600080fd5b50565b61324c8161317b565b811461325757600080fd5b50565b61326381613188565b811461326e57600080fd5b50565b61327a816131c4565b811461328557600080fd5b50565b613291816131d3565b811461329c57600080fd5b5056fea264697066735822122007536f17db0a8e5f72ae30e9257955d49ef8f7738c938398533a454fc2b0ea7764736f6c63430007060033",
  "linkReferences": {},
  "deployedLinkReferences": {}
}