{
  "_format": "hh-sol-artifact-1",
  "contractName": "UnifiVault",
  "sourceName": "contracts/UnifiVault.sol",
  "abi": [
    {
      "inputs": [
        {
          "internalType": "contract IUniswapV3Factory",
          "name": "_factory",
          "type": "address"
        },
        {
          "internalType": "contract INonfungiblePositionManager",
          "name": "_nonfungiblePositionManager",
          "type": "address"
        },
        {
          "internalType": "contract IUniswapV3Pool",
          "name": "_pool",
          "type": "address"
        }
      ],
      "stateMutability": "nonpayable",
      "type": "constructor"
    },
    {
      "inputs": [
        {
          "components": [
            {
              "internalType": "uint256",
              "name": "tokenId",
              "type": "uint256"
            },
            {
              "internalType": "uint256",
              "name": "amount0Desired",
              "type": "uint256"
            },
            {
              "internalType": "uint256",
              "name": "amount1Desired",
              "type": "uint256"
            },
            {
              "internalType": "uint256",
              "name": "amount0Min",
              "type": "uint256"
            },
            {
              "internalType": "uint256",
              "name": "amount1Min",
              "type": "uint256"
            },
            {
              "internalType": "uint256",
              "name": "deadline",
              "type": "uint256"
            }
          ],
          "internalType": "struct INonfungiblePositionManager.IncreaseLiquidityParams",
          "name": "params",
          "type": "tuple"
        }
      ],
      "name": "addLiquidity",
      "outputs": [
        {
          "internalType": "uint128",
          "name": "liquidity",
          "type": "uint128"
        },
        {
          "internalType": "uint256",
          "name": "amount0",
          "type": "uint256"
        },
        {
          "internalType": "uint256",
          "name": "amount1",
          "type": "uint256"
        }
      ],
      "stateMutability": "nonpayable",
      "type": "function"
    },
    {
      "inputs": [
        {
          "internalType": "address",
          "name": "_tokenAddress",
          "type": "address"
        },
        {
          "internalType": "uint256",
          "name": "_amount",
          "type": "uint256"
        }
      ],
      "name": "deposit",
      "outputs": [],
      "stateMutability": "nonpayable",
      "type": "function"
    },
    {
      "inputs": [],
      "name": "ethPrice",
      "outputs": [
        {
          "internalType": "uint256",
          "name": "",
          "type": "uint256"
        }
      ],
      "stateMutability": "view",
      "type": "function"
    },
    {
      "inputs": [
        {
          "internalType": "address",
          "name": "tokenAddress",
          "type": "address"
        }
      ],
      "name": "getBalance",
      "outputs": [
        {
          "internalType": "uint256",
          "name": "tokenAmount",
          "type": "uint256"
        }
      ],
      "stateMutability": "view",
      "type": "function"
    },
    {
      "inputs": [],
      "name": "getEthBalance",
      "outputs": [
        {
          "internalType": "uint256",
          "name": "",
          "type": "uint256"
        }
      ],
      "stateMutability": "view",
      "type": "function"
    },
    {
      "inputs": [],
      "name": "getToken0",
      "outputs": [
        {
          "internalType": "address",
          "name": "",
          "type": "address"
        }
      ],
      "stateMutability": "view",
      "type": "function"
    },
    {
      "inputs": [],
      "name": "getToken1",
      "outputs": [
        {
          "internalType": "address",
          "name": "",
          "type": "address"
        }
      ],
      "stateMutability": "view",
      "type": "function"
    },
    {
      "inputs": [],
      "name": "getTokenBalance",
      "outputs": [
        {
          "internalType": "uint256",
          "name": "",
          "type": "uint256"
        }
      ],
      "stateMutability": "view",
      "type": "function"
    },
    {
      "inputs": [],
      "name": "getTotalLiquidity",
      "outputs": [
        {
          "internalType": "uint256",
          "name": "",
          "type": "uint256"
        }
      ],
      "stateMutability": "view",
      "type": "function"
    },
    {
      "inputs": [],
      "name": "getWethBalance",
      "outputs": [
        {
          "internalType": "uint256",
          "name": "",
          "type": "uint256"
        }
      ],
      "stateMutability": "view",
      "type": "function"
    },
    {
      "inputs": [
        {
          "components": [
            {
              "internalType": "address",
              "name": "token0",
              "type": "address"
            },
            {
              "internalType": "address",
              "name": "token1",
              "type": "address"
            },
            {
              "internalType": "uint24",
              "name": "fee",
              "type": "uint24"
            },
            {
              "internalType": "int24",
              "name": "tickLower",
              "type": "int24"
            },
            {
              "internalType": "int24",
              "name": "tickUpper",
              "type": "int24"
            },
            {
              "internalType": "uint256",
              "name": "amount0Desired",
              "type": "uint256"
            },
            {
              "internalType": "uint256",
              "name": "amount1Desired",
              "type": "uint256"
            },
            {
              "internalType": "uint256",
              "name": "amount0Min",
              "type": "uint256"
            },
            {
              "internalType": "uint256",
              "name": "amount1Min",
              "type": "uint256"
            },
            {
              "internalType": "address",
              "name": "recipient",
              "type": "address"
            },
            {
              "internalType": "uint256",
              "name": "deadline",
              "type": "uint256"
            }
          ],
          "internalType": "struct INonfungiblePositionManager.MintParams",
          "name": "params",
          "type": "tuple"
        }
      ],
      "name": "mintPosition",
      "outputs": [
        {
          "internalType": "uint256",
          "name": "tokenId",
          "type": "uint256"
        },
        {
          "internalType": "uint128",
          "name": "liquidity",
          "type": "uint128"
        },
        {
          "internalType": "uint256",
          "name": "amount0",
          "type": "uint256"
        },
        {
          "internalType": "uint256",
          "name": "amount1",
          "type": "uint256"
        }
      ],
      "stateMutability": "nonpayable",
      "type": "function"
    },
    {
      "inputs": [],
      "name": "priceToken0",
      "outputs": [
        {
          "internalType": "uint256",
          "name": "",
          "type": "uint256"
        }
      ],
      "stateMutability": "view",
      "type": "function"
    },
    {
      "inputs": [],
      "name": "requiredAmount0",
      "outputs": [
        {
          "internalType": "uint256",
          "name": "",
          "type": "uint256"
        }
      ],
      "stateMutability": "view",
      "type": "function"
    },
    {
      "inputs": [],
      "name": "requiredAmount1",
      "outputs": [
        {
          "internalType": "uint256",
          "name": "",
          "type": "uint256"
        }
      ],
      "stateMutability": "view",
      "type": "function"
    },
    {
      "inputs": [],
      "name": "totalLiquidity",
      "outputs": [
        {
          "internalType": "uint128",
          "name": "",
          "type": "uint128"
        }
      ],
      "stateMutability": "view",
      "type": "function"
    },
    {
      "inputs": [],
      "name": "updateWethPrice",
      "outputs": [],
      "stateMutability": "nonpayable",
      "type": "function"
    },
    {
      "inputs": [],
      "name": "vaultTokenId",
      "outputs": [
        {
          "internalType": "uint256",
          "name": "",
          "type": "uint256"
        }
      ],
      "stateMutability": "view",
      "type": "function"
    },
    {
      "inputs": [],
      "name": "withdraw",
      "outputs": [],
      "stateMutability": "nonpayable",
      "type": "function"
    },
    {
      "inputs": [
        {
          "internalType": "address",
          "name": "tokenAddress",
          "type": "address"
        },
        {
          "internalType": "uint256",
          "name": "amountIn",
          "type": "uint256"
        }
      ],
      "name": "zapToken",
      "outputs": [],
      "stateMutability": "nonpayable",
      "type": "function"
    },
    {
      "stateMutability": "payable",
      "type": "receive"
    }
  ],
  "bytecode": "0x608060405273b27308f9f90d607463bb33ea1bebb41c27ce5ab6600360006101000a81548173ffffffffffffffffffffffffffffffffffffffff021916908373ffffffffffffffffffffffffffffffffffffffff16021790555073e592427a0aece92de3edee1f18e0157c05861564600460006101000a81548173ffffffffffffffffffffffffffffffffffffffff021916908373ffffffffffffffffffffffffffffffffffffffff16021790555073c02aaa39b223fe8d0a0e5c4f27ead9083c756cc2600560006101000a81548173ffffffffffffffffffffffffffffffffffffffff021916908373ffffffffffffffffffffffffffffffffffffffff1602179055503480156200011057600080fd5b5060405162002f0b38038062002f0b8339818101604052810190620001369190620003c3565b620001816040518060400160405280601681526020017f4465706c6f79696e67204c697175697469647950726f000000000000000000008152506200024c60201b62001ac71760201c565b826000806101000a81548173ffffffffffffffffffffffffffffffffffffffff021916908373ffffffffffffffffffffffffffffffffffffffff16021790555081600160006101000a81548173ffffffffffffffffffffffffffffffffffffffff021916908373ffffffffffffffffffffffffffffffffffffffff16021790555080600260006101000a81548173ffffffffffffffffffffffffffffffffffffffff021916908373ffffffffffffffffffffffffffffffffffffffff160217905550505050620004d7565b62000352816040516024018080602001828103825283818151815260200191508051906020019080838360005b838110156200029657808201518184015260208101905062000279565b50505050905090810190601f168015620002c45780820380516001836020036101000a031916815260200191505b50925050506040516020818303038152906040527f41304fac000000000000000000000000000000000000000000000000000000007bffffffffffffffffffffffffffffffffffffffffffffffffffffffff19166020820180517bffffffffffffffffffffffffffffffffffffffffffffffffffffffff83818316178352505050506200035560201b60201c565b50565b60008151905060006a636f6e736f6c652e6c6f679050602083016000808483855afa5050505050565b6000815190506200038f8162000489565b92915050565b600081519050620003a681620004a3565b92915050565b600081519050620003bd81620004bd565b92915050565b600080600060608486031215620003d957600080fd5b6000620003e98682870162000395565b9350506020620003fc868287016200037e565b92505060406200040f86828701620003ac565b9150509250925092565b6000620004268262000469565b9050919050565b60006200043a8262000419565b9050919050565b60006200044e8262000419565b9050919050565b6000620004628262000419565b9050919050565b600073ffffffffffffffffffffffffffffffffffffffff82169050919050565b62000494816200042d565b8114620004a057600080fd5b50565b620004ae8162000441565b8114620004ba57600080fd5b50565b620004c88162000455565b8114620004d457600080fd5b50565b612a2480620004e76000396000f3fe6080604052600436106101185760003560e01c806372ff22a0116100a0578063ba94a31511610064578063ba94a315146104ad578063f657a7fe146104d8578063f8b2cb4f14610503578063f8e80d8614610540578063ff186b2e1461056b57610251565b806372ff22a0146103ec57806382b2e2571461041757806391a8ae9f146104425780639dd58b581461046b578063abfb8dc21461049657610251565b80633ccfd60b116100e75780633ccfd60b1461031657806347e7ef241461032d5780635f1ee5c4146103565780636f26a7101461039657806370ed0ada146103c157610251565b806315770f921461025657806328f70549146102815780632f45d9b1146102ac57806335c7e925146102eb57610251565b3661025157600560009054906101000a900473ffffffffffffffffffffffffffffffffffffffff1673ffffffffffffffffffffffffffffffffffffffff1663d0e30db0346040518263ffffffff1660e01b81526004016000604051808303818588803b15801561018757600080fd5b505af115801561019b573d6000803e3d6000fd5b505050505034600e60003373ffffffffffffffffffffffffffffffffffffffff1673ffffffffffffffffffffffffffffffffffffffff1681526020019081526020016000206000016000600560009054906101000a900473ffffffffffffffffffffffffffffffffffffffff1673ffffffffffffffffffffffffffffffffffffffff1673ffffffffffffffffffffffffffffffffffffffff16815260200190815260200160002060008282540192505081905550005b600080fd5b34801561026257600080fd5b5061026b610596565b60405161027891906127c9565b60405180910390f35b34801561028d57600080fd5b506102966105b8565b6040516102a3919061281b565b60405180910390f35b3480156102b857600080fd5b506102d360048036038101906102ce9190612155565b6105be565b6040516102e2939291906127e4565b60405180910390f35b3480156102f757600080fd5b50610300610683565b60405161030d919061281b565b60405180910390f35b34801561032257600080fd5b5061032b6106bb565b005b34801561033957600080fd5b50610354600480360381019061034f91906120f0565b610998565b005b34801561036257600080fd5b5061037d6004803603810190610378919061217e565b610b0f565b60405161038d9493929190612836565b60405180910390f35b3480156103a257600080fd5b506103ab610df6565b6040516103b89190612657565b60405180910390f35b3480156103cd57600080fd5b506103d6610e9d565b6040516103e3919061281b565b60405180910390f35b3480156103f857600080fd5b50610401610ea5565b60405161040e919061281b565b60405180910390f35b34801561042357600080fd5b5061042c610eab565b604051610439919061281b565b60405180910390f35b34801561044e57600080fd5b50610469600480360381019061046491906120f0565b611171565b005b34801561047757600080fd5b50610480611622565b60405161048d919061281b565b60405180910390f35b3480156104a257600080fd5b506104ab6116d4565b005b3480156104b957600080fd5b506104c2611985565b6040516104cf9190612657565b60405180910390f35b3480156104e457600080fd5b506104ed611a2c565b6040516104fa919061281b565b60405180910390f35b34801561050f57600080fd5b5061052a6004803603810190610525919061209e565b611a32565b604051610537919061281b565b60405180910390f35b34801561054c57600080fd5b50610555611abb565b604051610562919061281b565b60405180910390f35b34801561057757600080fd5b50610580611ac1565b60405161058d919061281b565b60405180910390f35b600860009054906101000a90046fffffffffffffffffffffffffffffffff1681565b600b5481565b6000806000600160009054906101000a900473ffffffffffffffffffffffffffffffffffffffff1673ffffffffffffffffffffffffffffffffffffffff1663219f5d17856040518263ffffffff1660e01b815260040161061e9190612792565b606060405180830381600087803b15801561063857600080fd5b505af115801561064c573d6000803e3d6000fd5b505050506040513d601f19601f8201168201806040525081019061067091906121a8565b8093508194508295505050509193909250565b6000600860009054906101000a90046fffffffffffffffffffffffffffffffff166fffffffffffffffffffffffffffffffff16905090565b6106fc6040518060400160405280600c81526020017f7661756c74546f6b656e49640000000000000000000000000000000000000000815250600954611bc5565b61076b6040518060400160405280600f81526020017f746f74616c204c69717569646974790000000000000000000000000000000000815250600860009054906101000a90046fffffffffffffffffffffffffffffffff166fffffffffffffffffffffffffffffffff16611bc5565b60006040518060a001604052806009548152602001600860009054906101000a90046fffffffffffffffffffffffffffffffff166fffffffffffffffffffffffffffffffff1681526020016000815260200160008152602001428152509050600080600160009054906101000a900473ffffffffffffffffffffffffffffffffffffffff1673ffffffffffffffffffffffffffffffffffffffff16630c49ccbe846040518263ffffffff1660e01b8152600401610828919061275b565b6040805180830381600087803b15801561084157600080fd5b505af1158015610855573d6000803e3d6000fd5b505050506040513d601f19601f8201168201806040525081019061087991906122ac565b915091506000604051806080016040528060095481526020013073ffffffffffffffffffffffffffffffffffffffff168152602001846fffffffffffffffffffffffffffffffff168152602001836fffffffffffffffffffffffffffffffff168152509050600160009054906101000a900473ffffffffffffffffffffffffffffffffffffffff1673ffffffffffffffffffffffffffffffffffffffff1663fc6f7865826040518263ffffffff1660e01b81526004016109399190612740565b6040805180830381600087803b15801561095257600080fd5b505af1158015610966573d6000803e3d6000fd5b505050506040513d601f19601f8201168201806040525081019061098a91906122ac565b809350819450505050505050565b6109d66040518060400160405280600781526020017f6465706f73697400000000000000000000000000000000000000000000000000815250611ac7565b6109df82611ccc565b6109e881611d7b565b60008290508073ffffffffffffffffffffffffffffffffffffffff166323b872dd3330856040518463ffffffff1660e01b8152600401610a2a9392919061268d565b602060405180830381600087803b158015610a4457600080fd5b505af1158015610a58573d6000803e3d6000fd5b505050506040513d601f19601f82011682018060405250810190610a7c919061212c565b5081600e60003373ffffffffffffffffffffffffffffffffffffffff1673ffffffffffffffffffffffffffffffffffffffff16815260200190815260200160002060000160008573ffffffffffffffffffffffffffffffffffffffff1673ffffffffffffffffffffffffffffffffffffffff16815260200190815260200160002060008282540192505081905550505050565b600080600080610b1d611985565b73ffffffffffffffffffffffffffffffffffffffff1663095ea7b3600160009054906101000a900473ffffffffffffffffffffffffffffffffffffffff167fffffffffffffffffffffffffffffffffffffffffffffffffffffffffffffffff6040518363ffffffff1660e01b8152600401610b99929190612717565b602060405180830381600087803b158015610bb357600080fd5b505af1158015610bc7573d6000803e3d6000fd5b505050506040513d601f19601f82011682018060405250810190610beb919061212c565b50610bf4610df6565b73ffffffffffffffffffffffffffffffffffffffff1663095ea7b3600160009054906101000a900473ffffffffffffffffffffffffffffffffffffffff167fffffffffffffffffffffffffffffffffffffffffffffffffffffffffffffffff6040518363ffffffff1660e01b8152600401610c70929190612717565b602060405180830381600087803b158015610c8a57600080fd5b505af1158015610c9e573d6000803e3d6000fd5b505050506040513d601f19601f82011682018060405250810190610cc2919061212c565b50600160009054906101000a900473ffffffffffffffffffffffffffffffffffffffff1673ffffffffffffffffffffffffffffffffffffffff166388316456866040518263ffffffff1660e01b8152600401610d1e91906127ad565b608060405180830381600087803b158015610d3857600080fd5b505af1158015610d4c573d6000803e3d6000fd5b505050506040513d601f19601f82011682018060405250810190610d709190612249565b8094508195508296508397505050505082600860008282829054906101000a90046fffffffffffffffffffffffffffffffff160192506101000a8154816fffffffffffffffffffffffffffffffff02191690836fffffffffffffffffffffffffffffffff1602179055508360098190555081600b8190555080600c819055509193509193565b6000600260009054906101000a900473ffffffffffffffffffffffffffffffffffffffff1673ffffffffffffffffffffffffffffffffffffffff1663d21220a76040518163ffffffff1660e01b815260040160206040518083038186803b158015610e6057600080fd5b505afa158015610e74573d6000803e3d6000fd5b505050506040513d601f19601f82011682018060405250810190610e9891906120c7565b905090565b600047905090565b600a5481565b60008073c02aaa39b223fe8d0a0e5c4f27ead9083c756cc273ffffffffffffffffffffffffffffffffffffffff16600260009054906101000a900473ffffffffffffffffffffffffffffffffffffffff1673ffffffffffffffffffffffffffffffffffffffff16630dfe16816040518163ffffffff1660e01b815260040160206040518083038186803b158015610f4157600080fd5b505afa158015610f55573d6000803e3d6000fd5b505050506040513d601f19601f82011682018060405250810190610f7991906120c7565b73ffffffffffffffffffffffffffffffffffffffff161461103957600260009054906101000a900473ffffffffffffffffffffffffffffffffffffffff1673ffffffffffffffffffffffffffffffffffffffff16630dfe16816040518163ffffffff1660e01b815260040160206040518083038186803b158015610ffc57600080fd5b505afa158015611010573d6000803e3d6000fd5b505050506040513d601f19601f8201168201806040525081019061103491906120c7565b6110da565b600260009054906101000a900473ffffffffffffffffffffffffffffffffffffffff1673ffffffffffffffffffffffffffffffffffffffff1663d21220a76040518163ffffffff1660e01b815260040160206040518083038186803b1580156110a157600080fd5b505afa1580156110b5573d6000803e3d6000fd5b505050506040513d601f19601f820116820180604052508101906110d991906120c7565b5b905060008173ffffffffffffffffffffffffffffffffffffffff166370a08231306040518263ffffffff1660e01b81526004016111179190612672565b60206040518083038186803b15801561112f57600080fd5b505afa158015611143573d6000803e3d6000fd5b505050506040513d601f19601f820116820180604052508101906111679190612220565b9050809250505090565b600560009054906101000a900473ffffffffffffffffffffffffffffffffffffffff1673ffffffffffffffffffffffffffffffffffffffff1663095ea7b3600460009054906101000a900473ffffffffffffffffffffffffffffffffffffffff16836040518363ffffffff1660e01b81526004016111f0929190612717565b602060405180830381600087803b15801561120a57600080fd5b505af115801561121e573d6000803e3d6000fd5b505050506040513d601f19601f82011682018060405250810190611242919061212c565b5060006040518061010001604052808473ffffffffffffffffffffffffffffffffffffffff168152602001600560009054906101000a900473ffffffffffffffffffffffffffffffffffffffff1673ffffffffffffffffffffffffffffffffffffffff168573ffffffffffffffffffffffffffffffffffffffff161461136757600260009054906101000a900473ffffffffffffffffffffffffffffffffffffffff1673ffffffffffffffffffffffffffffffffffffffff1663d21220a76040518163ffffffff1660e01b815260040160206040518083038186803b15801561132a57600080fd5b505afa15801561133e573d6000803e3d6000fd5b505050506040513d601f19601f8201168201806040525081019061136291906120c7565b611408565b600260009054906101000a900473ffffffffffffffffffffffffffffffffffffffff1673ffffffffffffffffffffffffffffffffffffffff16630dfe16816040518163ffffffff1660e01b815260040160206040518083038186803b1580156113cf57600080fd5b505afa1580156113e3573d6000803e3d6000fd5b505050506040513d601f19601f8201168201806040525081019061140791906120c7565b5b73ffffffffffffffffffffffffffffffffffffffff168152602001600260009054906101000a900473ffffffffffffffffffffffffffffffffffffffff1673ffffffffffffffffffffffffffffffffffffffff1663ddca3f436040518163ffffffff1660e01b815260040160206040518083038186803b15801561148b57600080fd5b505afa15801561149f573d6000803e3d6000fd5b505050506040513d601f19601f820116820180604052508101906114c391906121f7565b62ffffff1681526020013073ffffffffffffffffffffffffffffffffffffffff16815260200142815260200183815260200160008152602001600073ffffffffffffffffffffffffffffffffffffffff1681525090506000600460009054906101000a900473ffffffffffffffffffffffffffffffffffffffff1673ffffffffffffffffffffffffffffffffffffffff1663414bf389836040518263ffffffff1660e01b81526004016115769190612776565b602060405180830381600087803b15801561159057600080fd5b505af11580156115a4573d6000803e3d6000fd5b505050506040513d601f19601f820116820180604052508101906115c89190612220565b90506115d381611d7b565b60006040518060c0016040528060095481526020018381526020016115f6611622565b81526020016000815260200160008152602001428152509050611618816105be565b5050505050505050565b6000600560009054906101000a900473ffffffffffffffffffffffffffffffffffffffff1673ffffffffffffffffffffffffffffffffffffffff166370a08231306040518263ffffffff1660e01b815260040161167f9190612672565b60206040518083038186803b15801561169757600080fd5b505afa1580156116ab573d6000803e3d6000fd5b505050506040513d601f19601f820116820180604052508101906116cf9190612220565b905090565b6000670de0b6b3a764000090506000600260009054906101000a900473ffffffffffffffffffffffffffffffffffffffff1673ffffffffffffffffffffffffffffffffffffffff1663ddca3f436040518163ffffffff1660e01b815260040160206040518083038186803b15801561174b57600080fd5b505afa15801561175f573d6000803e3d6000fd5b505050506040513d601f19601f8201168201806040525081019061178391906121f7565b90506000600360009054906101000a900473ffffffffffffffffffffffffffffffffffffffff1673ffffffffffffffffffffffffffffffffffffffff1663f7729d43600260009054906101000a900473ffffffffffffffffffffffffffffffffffffffff1673ffffffffffffffffffffffffffffffffffffffff1663d21220a76040518163ffffffff1660e01b815260040160206040518083038186803b15801561182d57600080fd5b505afa158015611841573d6000803e3d6000fd5b505050506040513d601f19601f8201168201806040525081019061186591906120c7565b600260009054906101000a900473ffffffffffffffffffffffffffffffffffffffff1673ffffffffffffffffffffffffffffffffffffffff16630dfe16816040518163ffffffff1660e01b815260040160206040518083038186803b1580156118cd57600080fd5b505afa1580156118e1573d6000803e3d6000fd5b505050506040513d601f19601f8201168201806040525081019061190591906120c7565b8587866040518663ffffffff1660e01b81526004016119289594939291906126c4565b602060405180830381600087803b15801561194257600080fd5b505af1158015611956573d6000803e3d6000fd5b505050506040513d601f19601f8201168201806040525081019061197a9190612220565b600d81905550505050565b6000600260009054906101000a900473ffffffffffffffffffffffffffffffffffffffff1673ffffffffffffffffffffffffffffffffffffffff16630dfe16816040518163ffffffff1660e01b815260040160206040518083038186803b1580156119ef57600080fd5b505afa158015611a03573d6000803e3d6000fd5b505050506040513d601f19601f82011682018060405250810190611a2791906120c7565b905090565b60095481565b6000600e60003373ffffffffffffffffffffffffffffffffffffffff1673ffffffffffffffffffffffffffffffffffffffff16815260200190815260200160002060000160008373ffffffffffffffffffffffffffffffffffffffff1673ffffffffffffffffffffffffffffffffffffffff168152602001908152602001600020549050919050565b600c5481565b600d5481565b611bc2816040516024018080602001828103825283818151815260200191508051906020019080838360005b83811015611b0e578082015181840152602081019050611af3565b50505050905090810190601f168015611b3b5780820380516001836020036101000a031916815260200191505b50925050506040516020818303038152906040527f41304fac000000000000000000000000000000000000000000000000000000007bffffffffffffffffffffffffffffffffffffffffffffffffffffffff19166020820180517bffffffffffffffffffffffffffffffffffffffffffffffffffffffff8381831617835250505050611e14565b50565b611cc882826040516024018080602001838152602001828103825284818151815260200191508051906020019080838360005b83811015611c13578082015181840152602081019050611bf8565b50505050905090810190601f168015611c405780820380516001836020036101000a031916815260200191505b5093505050506040516020818303038152906040527f9710a9d0000000000000000000000000000000000000000000000000000000007bffffffffffffffffffffffffffffffffffffffffffffffffffffffff19166020820180517bffffffffffffffffffffffffffffffffffffffffffffffffffffffff8381831617835250505050611e14565b5050565b611d7881604051602401808273ffffffffffffffffffffffffffffffffffffffff1681526020019150506040516020818303038152906040527f2c2ecbc2000000000000000000000000000000000000000000000000000000007bffffffffffffffffffffffffffffffffffffffffffffffffffffffff19166020820180517bffffffffffffffffffffffffffffffffffffffffffffffffffffffff8381831617835250505050611e14565b50565b611e1181604051602401808281526020019150506040516020818303038152906040527ff5b1bba9000000000000000000000000000000000000000000000000000000007bffffffffffffffffffffffffffffffffffffffffffffffffffffffff19166020820180517bffffffffffffffffffffffffffffffffffffffffffffffffffffffff8381831617835250505050611e14565b50565b60008151905060006a636f6e736f6c652e6c6f679050602083016000808483855afa5050505050565b600081359050611e4c81612964565b92915050565b600081519050611e6181612964565b92915050565b600081519050611e768161297b565b92915050565b600081359050611e8b81612992565b92915050565b600060c08284031215611ea357600080fd5b611ead60c061287b565b90506000611ebd84828501612074565b6000830152506020611ed184828501612074565b6020830152506040611ee584828501612074565b6040830152506060611ef984828501612074565b6060830152506080611f0d84828501612074565b60808301525060a0611f2184828501612074565b60a08301525092915050565b60006101608284031215611f4057600080fd5b611f4b61016061287b565b90506000611f5b84828501611e3d565b6000830152506020611f6f84828501611e3d565b6020830152506040611f838482850161204a565b6040830152506060611f9784828501611e7c565b6060830152506080611fab84828501611e7c565b60808301525060a0611fbf84828501612074565b60a08301525060c0611fd384828501612074565b60c08301525060e0611fe784828501612074565b60e083015250610100611ffc84828501612074565b6101008301525061012061201284828501611e3d565b6101208301525061014061202884828501612074565b6101408301525092915050565b600081519050612044816129a9565b92915050565b600081359050612059816129c0565b92915050565b60008151905061206e816129c0565b92915050565b600081359050612083816129d7565b92915050565b600081519050612098816129d7565b92915050565b6000602082840312156120b057600080fd5b60006120be84828501611e3d565b91505092915050565b6000602082840312156120d957600080fd5b60006120e784828501611e52565b91505092915050565b6000806040838503121561210357600080fd5b600061211185828601611e3d565b925050602061212285828601612074565b9150509250929050565b60006020828403121561213e57600080fd5b600061214c84828501611e67565b91505092915050565b600060c0828403121561216757600080fd5b600061217584828501611e91565b91505092915050565b6000610160828403121561219157600080fd5b600061219f84828501611f2d565b91505092915050565b6000806000606084860312156121bd57600080fd5b60006121cb86828701612035565b93505060206121dc86828701612089565b92505060406121ed86828701612089565b9150509250925092565b60006020828403121561220957600080fd5b60006122178482850161205f565b91505092915050565b60006020828403121561223257600080fd5b600061224084828501612089565b91505092915050565b6000806000806080858703121561225f57600080fd5b600061226d87828801612089565b945050602061227e87828801612035565b935050604061228f87828801612089565b92505060606122a087828801612089565b91505092959194509250565b600080604083850312156122bf57600080fd5b60006122cd85828601612089565b92505060206122de85828601612089565b9150509250929050565b6122f18161292c565b82525050565b612300816128ac565b82525050565b61230f816128ac565b82525050565b61231e816128ca565b82525050565b60808201600082015161233a6000850182612639565b50602082015161234d60208501826122f7565b50604082015161236060408501826125df565b50606082015161237360608501826125df565b50505050565b60a08201600082015161238f6000850182612639565b5060208201516123a260208501826125df565b5060408201516123b56040850182612639565b5060608201516123c86060850182612639565b5060808201516123db6080850182612639565b50505050565b610100820160008201516123f860008501826122f7565b50602082015161240b60208501826122f7565b50604082015161241e604085018261261b565b50606082015161243160608501826122f7565b5060808201516124446080850182612639565b5060a082015161245760a0850182612639565b5060c082015161246a60c0850182612639565b5060e082015161247d60e08501826125fd565b50505050565b60c0820160008201516124996000850182612639565b5060208201516124ac6020850182612639565b5060408201516124bf6040850182612639565b5060608201516124d26060850182612639565b5060808201516124e56080850182612639565b5060a08201516124f860a0850182612639565b50505050565b6101608201600082015161251560008501826122f7565b50602082015161252860208501826122f7565b50604082015161253b604085018261261b565b50606082015161254e6060850182612315565b5060808201516125616080850182612315565b5060a082015161257460a0850182612639565b5060c082015161258760c0850182612639565b5060e082015161259a60e0850182612639565b506101008201516125af610100850182612639565b506101208201516125c46101208501826122f7565b506101408201516125d9610140850182612639565b50505050565b6125e8816128d7565b82525050565b6125f7816128d7565b82525050565b612606816128f3565b82525050565b612615816128f3565b82525050565b61262481612913565b82525050565b61263381612913565b82525050565b61264281612922565b82525050565b61265181612922565b82525050565b600060208201905061266c6000830184612306565b92915050565b600060208201905061268760008301846122e8565b92915050565b60006060820190506126a260008301866122e8565b6126af60208301856122e8565b6126bc6040830184612648565b949350505050565b600060a0820190506126d96000830188612306565b6126e66020830187612306565b6126f3604083018661262a565b6127006060830185612648565b61270d608083018461260c565b9695505050505050565b600060408201905061272c6000830185612306565b6127396020830184612648565b9392505050565b60006080820190506127556000830184612324565b92915050565b600060a0820190506127706000830184612379565b92915050565b60006101008201905061278c60008301846123e1565b92915050565b600060c0820190506127a76000830184612483565b92915050565b6000610160820190506127c360008301846124fe565b92915050565b60006020820190506127de60008301846125ee565b92915050565b60006060820190506127f960008301866125ee565b6128066020830185612648565b6128136040830184612648565b949350505050565b60006020820190506128306000830184612648565b92915050565b600060808201905061284b6000830187612648565b61285860208301866125ee565b6128656040830185612648565b6128726060830184612648565b95945050505050565b6000604051905081810181811067ffffffffffffffff821117156128a2576128a1612962565b5b8060405250919050565b60006128b7826128f3565b9050919050565b60008115159050919050565b60008160020b9050919050565b60006fffffffffffffffffffffffffffffffff82169050919050565b600073ffffffffffffffffffffffffffffffffffffffff82169050919050565b600062ffffff82169050919050565b6000819050919050565b60006129378261293e565b9050919050565b600061294982612950565b9050919050565b600061295b826128f3565b9050919050565bfe5b61296d816128ac565b811461297857600080fd5b50565b612984816128be565b811461298f57600080fd5b50565b61299b816128ca565b81146129a657600080fd5b50565b6129b2816128d7565b81146129bd57600080fd5b50565b6129c981612913565b81146129d457600080fd5b50565b6129e081612922565b81146129eb57600080fd5b5056fea2646970667358221220ee78d03926f8f4c26dfba03694a4e547ad946224300f3f10c2a0e2bc7af394da64736f6c63430007060033",
  "linkReferences": {},
  "deployedLinkReferences": {}
}