{
  "_format": "hh-sol-artifact-1",
  "contractName": "UnifiVault",
  "sourceName": "contracts/UnifiVault.sol",
  "abi": [
    {
      "inputs": [
        {
          "internalType": "contract IUniswapV3Factory",
          "name": "_factory",
          "type": "address"
        },
        {
          "internalType": "contract INonfungiblePositionManager",
          "name": "_nonfungiblePositionManager",
          "type": "address"
        },
        {
          "internalType": "contract IUniswapV3Pool",
          "name": "_pool",
          "type": "address"
        }
      ],
      "stateMutability": "nonpayable",
      "type": "constructor"
    },
    {
      "inputs": [
        {
          "components": [
            {
              "internalType": "uint256",
              "name": "tokenId",
              "type": "uint256"
            },
            {
              "internalType": "uint256",
              "name": "amount0Desired",
              "type": "uint256"
            },
            {
              "internalType": "uint256",
              "name": "amount1Desired",
              "type": "uint256"
            },
            {
              "internalType": "uint256",
              "name": "amount0Min",
              "type": "uint256"
            },
            {
              "internalType": "uint256",
              "name": "amount1Min",
              "type": "uint256"
            },
            {
              "internalType": "uint256",
              "name": "deadline",
              "type": "uint256"
            }
          ],
          "internalType": "struct INonfungiblePositionManager.IncreaseLiquidityParams",
          "name": "params",
          "type": "tuple"
        }
      ],
      "name": "addLiquidity",
      "outputs": [
        {
          "internalType": "uint128",
          "name": "liquidity",
          "type": "uint128"
        },
        {
          "internalType": "uint256",
          "name": "amount0",
          "type": "uint256"
        },
        {
          "internalType": "uint256",
          "name": "amount1",
          "type": "uint256"
        }
      ],
      "stateMutability": "nonpayable",
      "type": "function"
    },
    {
      "inputs": [
        {
          "internalType": "uint256",
          "name": "amountIn",
          "type": "uint256"
        }
      ],
      "name": "addLiquidityEth",
      "outputs": [],
      "stateMutability": "payable",
      "type": "function"
    },
    {
      "inputs": [
        {
          "internalType": "address",
          "name": "_tokenAddress",
          "type": "address"
        },
        {
          "internalType": "uint256",
          "name": "_amount",
          "type": "uint256"
        }
      ],
      "name": "deposit",
      "outputs": [],
      "stateMutability": "nonpayable",
      "type": "function"
    },
    {
      "inputs": [],
      "name": "ethPrice",
      "outputs": [
        {
          "internalType": "uint256",
          "name": "",
          "type": "uint256"
        }
      ],
      "stateMutability": "view",
      "type": "function"
    },
    {
      "inputs": [
        {
          "internalType": "address",
          "name": "tokenAddress",
          "type": "address"
        }
      ],
      "name": "getBalance",
      "outputs": [
        {
          "internalType": "uint256",
          "name": "tokenAmount",
          "type": "uint256"
        }
      ],
      "stateMutability": "view",
      "type": "function"
    },
    {
      "inputs": [],
      "name": "getEthBalance",
      "outputs": [
        {
          "internalType": "uint256",
          "name": "",
          "type": "uint256"
        }
      ],
      "stateMutability": "view",
      "type": "function"
    },
    {
      "inputs": [],
      "name": "getToken0",
      "outputs": [
        {
          "internalType": "address",
          "name": "",
          "type": "address"
        }
      ],
      "stateMutability": "view",
      "type": "function"
    },
    {
      "inputs": [],
      "name": "getToken1",
      "outputs": [
        {
          "internalType": "address",
          "name": "",
          "type": "address"
        }
      ],
      "stateMutability": "view",
      "type": "function"
    },
    {
      "inputs": [],
      "name": "getTokenBalance",
      "outputs": [
        {
          "internalType": "uint256",
          "name": "",
          "type": "uint256"
        }
      ],
      "stateMutability": "view",
      "type": "function"
    },
    {
      "inputs": [],
      "name": "getTotalLiquidity",
      "outputs": [
        {
          "internalType": "uint256",
          "name": "",
          "type": "uint256"
        }
      ],
      "stateMutability": "view",
      "type": "function"
    },
    {
      "inputs": [],
      "name": "getWethBalance",
      "outputs": [
        {
          "internalType": "uint256",
          "name": "",
          "type": "uint256"
        }
      ],
      "stateMutability": "view",
      "type": "function"
    },
    {
      "inputs": [
        {
          "components": [
            {
              "internalType": "address",
              "name": "token0",
              "type": "address"
            },
            {
              "internalType": "address",
              "name": "token1",
              "type": "address"
            },
            {
              "internalType": "uint24",
              "name": "fee",
              "type": "uint24"
            },
            {
              "internalType": "int24",
              "name": "tickLower",
              "type": "int24"
            },
            {
              "internalType": "int24",
              "name": "tickUpper",
              "type": "int24"
            },
            {
              "internalType": "uint256",
              "name": "amount0Desired",
              "type": "uint256"
            },
            {
              "internalType": "uint256",
              "name": "amount1Desired",
              "type": "uint256"
            },
            {
              "internalType": "uint256",
              "name": "amount0Min",
              "type": "uint256"
            },
            {
              "internalType": "uint256",
              "name": "amount1Min",
              "type": "uint256"
            },
            {
              "internalType": "address",
              "name": "recipient",
              "type": "address"
            },
            {
              "internalType": "uint256",
              "name": "deadline",
              "type": "uint256"
            }
          ],
          "internalType": "struct INonfungiblePositionManager.MintParams",
          "name": "params",
          "type": "tuple"
        }
      ],
      "name": "mintPosition",
      "outputs": [
        {
          "internalType": "uint256",
          "name": "tokenId",
          "type": "uint256"
        },
        {
          "internalType": "uint128",
          "name": "liquidity",
          "type": "uint128"
        },
        {
          "internalType": "uint256",
          "name": "amount0",
          "type": "uint256"
        },
        {
          "internalType": "uint256",
          "name": "amount1",
          "type": "uint256"
        }
      ],
      "stateMutability": "nonpayable",
      "type": "function"
    },
    {
      "inputs": [],
      "name": "priceToken0",
      "outputs": [
        {
          "internalType": "uint256",
          "name": "",
          "type": "uint256"
        }
      ],
      "stateMutability": "view",
      "type": "function"
    },
    {
      "inputs": [],
      "name": "requiredAmount0",
      "outputs": [
        {
          "internalType": "uint256",
          "name": "",
          "type": "uint256"
        }
      ],
      "stateMutability": "view",
      "type": "function"
    },
    {
      "inputs": [],
      "name": "requiredAmount1",
      "outputs": [
        {
          "internalType": "uint256",
          "name": "",
          "type": "uint256"
        }
      ],
      "stateMutability": "view",
      "type": "function"
    },
    {
      "inputs": [],
      "name": "totalLiquidity",
      "outputs": [
        {
          "internalType": "uint128",
          "name": "",
          "type": "uint128"
        }
      ],
      "stateMutability": "view",
      "type": "function"
    },
    {
      "inputs": [],
      "name": "updateWethPrice",
      "outputs": [],
      "stateMutability": "nonpayable",
      "type": "function"
    },
    {
      "inputs": [],
      "name": "vaultTokenId",
      "outputs": [
        {
          "internalType": "uint256",
          "name": "",
          "type": "uint256"
        }
      ],
      "stateMutability": "view",
      "type": "function"
    },
    {
      "inputs": [],
      "name": "withdraw",
      "outputs": [],
      "stateMutability": "nonpayable",
      "type": "function"
    },
    {
      "inputs": [
        {
          "internalType": "address",
          "name": "tokenAddress",
          "type": "address"
        },
        {
          "internalType": "uint256",
          "name": "amountIn",
          "type": "uint256"
        }
      ],
      "name": "zapToken",
      "outputs": [],
      "stateMutability": "nonpayable",
      "type": "function"
    },
    {
      "stateMutability": "payable",
      "type": "receive"
    }
  ],
  "bytecode": "0x608060405273b27308f9f90d607463bb33ea1bebb41c27ce5ab6600360006101000a81548173ffffffffffffffffffffffffffffffffffffffff021916908373ffffffffffffffffffffffffffffffffffffffff16021790555073e592427a0aece92de3edee1f18e0157c05861564600460006101000a81548173ffffffffffffffffffffffffffffffffffffffff021916908373ffffffffffffffffffffffffffffffffffffffff16021790555073c02aaa39b223fe8d0a0e5c4f27ead9083c756cc2600560006101000a81548173ffffffffffffffffffffffffffffffffffffffff021916908373ffffffffffffffffffffffffffffffffffffffff1602179055503480156200011057600080fd5b50604051620036e2380380620036e28339818101604052810190620001369190620003c3565b620001816040518060400160405280601681526020017f4465706c6f79696e67204c697175697469647950726f000000000000000000008152506200024c60201b620021001760201c565b826000806101000a81548173ffffffffffffffffffffffffffffffffffffffff021916908373ffffffffffffffffffffffffffffffffffffffff16021790555081600160006101000a81548173ffffffffffffffffffffffffffffffffffffffff021916908373ffffffffffffffffffffffffffffffffffffffff16021790555080600260006101000a81548173ffffffffffffffffffffffffffffffffffffffff021916908373ffffffffffffffffffffffffffffffffffffffff160217905550505050620004d7565b62000352816040516024018080602001828103825283818151815260200191508051906020019080838360005b838110156200029657808201518184015260208101905062000279565b50505050905090810190601f168015620002c45780820380516001836020036101000a031916815260200191505b50925050506040516020818303038152906040527f41304fac000000000000000000000000000000000000000000000000000000007bffffffffffffffffffffffffffffffffffffffffffffffffffffffff19166020820180517bffffffffffffffffffffffffffffffffffffffffffffffffffffffff83818316178352505050506200035560201b60201c565b50565b60008151905060006a636f6e736f6c652e6c6f679050602083016000808483855afa5050505050565b6000815190506200038f8162000489565b92915050565b600081519050620003a681620004a3565b92915050565b600081519050620003bd81620004bd565b92915050565b600080600060608486031215620003d957600080fd5b6000620003e98682870162000395565b9350506020620003fc868287016200037e565b92505060406200040f86828701620003ac565b9150509250925092565b6000620004268262000469565b9050919050565b60006200043a8262000419565b9050919050565b60006200044e8262000419565b9050919050565b6000620004628262000419565b9050919050565b600073ffffffffffffffffffffffffffffffffffffffff82169050919050565b62000494816200042d565b8114620004a057600080fd5b50565b620004ae8162000441565b8114620004ba57600080fd5b50565b620004c88162000455565b8114620004d457600080fd5b50565b6131fb80620004e76000396000f3fe6080604052600436106101235760003560e01c806382b2e257116100a0578063ba94a31511610064578063ba94a315146104d4578063f657a7fe146104ff578063f8b2cb4f1461052a578063f8e80d8614610567578063ff186b2e146105925761025c565b806382b2e2571461042257806391a8ae9f1461044d5780639dd58b5814610476578063a6c9ef98146104a1578063abfb8dc2146104bd5761025c565b806347e7ef24116100e757806347e7ef24146103385780635f1ee5c4146103615780636f26a710146103a157806370ed0ada146103cc57806372ff22a0146103f75761025c565b806315770f921461026157806328f705491461028c5780632f45d9b1146102b757806335c7e925146102f65780633ccfd60b146103215761025c565b3661025c57600560009054906101000a900473ffffffffffffffffffffffffffffffffffffffff1673ffffffffffffffffffffffffffffffffffffffff1663d0e30db0346040518263ffffffff1660e01b81526004016000604051808303818588803b15801561019257600080fd5b505af11580156101a6573d6000803e3d6000fd5b505050505034600c60003373ffffffffffffffffffffffffffffffffffffffff1673ffffffffffffffffffffffffffffffffffffffff1681526020019081526020016000206000016000600560009054906101000a900473ffffffffffffffffffffffffffffffffffffffff1673ffffffffffffffffffffffffffffffffffffffff1673ffffffffffffffffffffffffffffffffffffffff16815260200190815260200160002060008282540192505081905550005b600080fd5b34801561026d57600080fd5b506102766105bd565b6040516102839190612fa0565b60405180910390f35b34801561029857600080fd5b506102a16105df565b6040516102ae9190612ff2565b60405180910390f35b3480156102c357600080fd5b506102de60048036038101906102d99190612903565b6105e5565b6040516102ed93929190612fbb565b60405180910390f35b34801561030257600080fd5b5061030b610704565b6040516103189190612ff2565b60405180910390f35b34801561032d57600080fd5b5061033661073c565b005b34801561034457600080fd5b5061035f600480360381019061035a919061289e565b610a19565b005b34801561036d57600080fd5b506103886004803603810190610383919061292c565b610b90565b604051610398949392919061300d565b60405180910390f35b3480156103ad57600080fd5b506103b6610e77565b6040516103c39190612e2e565b60405180910390f35b3480156103d857600080fd5b506103e1610f1e565b6040516103ee9190612ff2565b60405180910390f35b34801561040357600080fd5b5061040c610f26565b6040516104199190612ff2565b60405180910390f35b34801561042e57600080fd5b50610437610f2c565b6040516104449190612ff2565b60405180910390f35b34801561045957600080fd5b50610474600480360381019061046f919061289e565b6111f2565b005b34801561048257600080fd5b5061048b6116a3565b6040516104989190612ff2565b60405180910390f35b6104bb60048036038101906104b691906129ce565b611755565b005b3480156104c957600080fd5b506104d2611d0d565b005b3480156104e057600080fd5b506104e9611fbe565b6040516104f69190612e2e565b60405180910390f35b34801561050b57600080fd5b50610514612065565b6040516105219190612ff2565b60405180910390f35b34801561053657600080fd5b50610551600480360381019061054c919061284c565b61206b565b60405161055e9190612ff2565b60405180910390f35b34801561057357600080fd5b5061057c6120f4565b6040516105899190612ff2565b60405180910390f35b34801561059e57600080fd5b506105a76120fa565b6040516105b49190612ff2565b60405180910390f35b600660009054906101000a90046fffffffffffffffffffffffffffffffff1681565b60095481565b6000806000600160009054906101000a900473ffffffffffffffffffffffffffffffffffffffff1673ffffffffffffffffffffffffffffffffffffffff1663219f5d17856040518263ffffffff1660e01b81526004016106459190612f69565b606060405180830381600087803b15801561065f57600080fd5b505af1158015610673573d6000803e3d6000fd5b505050506040513d601f19601f820116820180604052508101906106979190612956565b80935081945082955050505082600660008282829054906101000a90046fffffffffffffffffffffffffffffffff160192506101000a8154816fffffffffffffffffffffffffffffffff02191690836fffffffffffffffffffffffffffffffff1602179055509193909250565b6000600660009054906101000a90046fffffffffffffffffffffffffffffffff166fffffffffffffffffffffffffffffffff16905090565b61077d6040518060400160405280600c81526020017f7661756c74546f6b656e496400000000000000000000000000000000000000008152506007546121fe565b6107ec6040518060400160405280600f81526020017f746f74616c204c69717569646974790000000000000000000000000000000000815250600660009054906101000a90046fffffffffffffffffffffffffffffffff166fffffffffffffffffffffffffffffffff166121fe565b60006040518060a001604052806007548152602001600660009054906101000a90046fffffffffffffffffffffffffffffffff166fffffffffffffffffffffffffffffffff1681526020016000815260200160008152602001428152509050600080600160009054906101000a900473ffffffffffffffffffffffffffffffffffffffff1673ffffffffffffffffffffffffffffffffffffffff16630c49ccbe846040518263ffffffff1660e01b81526004016108a99190612f32565b6040805180830381600087803b1580156108c257600080fd5b505af11580156108d6573d6000803e3d6000fd5b505050506040513d601f19601f820116820180604052508101906108fa9190612a83565b915091506000604051806080016040528060075481526020013073ffffffffffffffffffffffffffffffffffffffff168152602001846fffffffffffffffffffffffffffffffff168152602001836fffffffffffffffffffffffffffffffff168152509050600160009054906101000a900473ffffffffffffffffffffffffffffffffffffffff1673ffffffffffffffffffffffffffffffffffffffff1663fc6f7865826040518263ffffffff1660e01b81526004016109ba9190612f17565b6040805180830381600087803b1580156109d357600080fd5b505af11580156109e7573d6000803e3d6000fd5b505050506040513d601f19601f82011682018060405250810190610a0b9190612a83565b809350819450505050505050565b610a576040518060400160405280600781526020017f6465706f73697400000000000000000000000000000000000000000000000000815250612100565b610a6082612305565b610a69816123b4565b60008290508073ffffffffffffffffffffffffffffffffffffffff166323b872dd3330856040518463ffffffff1660e01b8152600401610aab93929190612e64565b602060405180830381600087803b158015610ac557600080fd5b505af1158015610ad9573d6000803e3d6000fd5b505050506040513d601f19601f82011682018060405250810190610afd91906128da565b5081600c60003373ffffffffffffffffffffffffffffffffffffffff1673ffffffffffffffffffffffffffffffffffffffff16815260200190815260200160002060000160008573ffffffffffffffffffffffffffffffffffffffff1673ffffffffffffffffffffffffffffffffffffffff16815260200190815260200160002060008282540192505081905550505050565b600080600080610b9e611fbe565b73ffffffffffffffffffffffffffffffffffffffff1663095ea7b3600160009054906101000a900473ffffffffffffffffffffffffffffffffffffffff167fffffffffffffffffffffffffffffffffffffffffffffffffffffffffffffffff6040518363ffffffff1660e01b8152600401610c1a929190612eee565b602060405180830381600087803b158015610c3457600080fd5b505af1158015610c48573d6000803e3d6000fd5b505050506040513d601f19601f82011682018060405250810190610c6c91906128da565b50610c75610e77565b73ffffffffffffffffffffffffffffffffffffffff1663095ea7b3600160009054906101000a900473ffffffffffffffffffffffffffffffffffffffff167fffffffffffffffffffffffffffffffffffffffffffffffffffffffffffffffff6040518363ffffffff1660e01b8152600401610cf1929190612eee565b602060405180830381600087803b158015610d0b57600080fd5b505af1158015610d1f573d6000803e3d6000fd5b505050506040513d601f19601f82011682018060405250810190610d4391906128da565b50600160009054906101000a900473ffffffffffffffffffffffffffffffffffffffff1673ffffffffffffffffffffffffffffffffffffffff166388316456866040518263ffffffff1660e01b8152600401610d9f9190612f84565b608060405180830381600087803b158015610db957600080fd5b505af1158015610dcd573d6000803e3d6000fd5b505050506040513d601f19601f82011682018060405250810190610df19190612a20565b8094508195508296508397505050505082600660008282829054906101000a90046fffffffffffffffffffffffffffffffff160192506101000a8154816fffffffffffffffffffffffffffffffff02191690836fffffffffffffffffffffffffffffffff160217905550836007819055508160098190555080600a819055509193509193565b6000600260009054906101000a900473ffffffffffffffffffffffffffffffffffffffff1673ffffffffffffffffffffffffffffffffffffffff1663d21220a76040518163ffffffff1660e01b815260040160206040518083038186803b158015610ee157600080fd5b505afa158015610ef5573d6000803e3d6000fd5b505050506040513d601f19601f82011682018060405250810190610f199190612875565b905090565b600047905090565b60085481565b60008073c02aaa39b223fe8d0a0e5c4f27ead9083c756cc273ffffffffffffffffffffffffffffffffffffffff16600260009054906101000a900473ffffffffffffffffffffffffffffffffffffffff1673ffffffffffffffffffffffffffffffffffffffff16630dfe16816040518163ffffffff1660e01b815260040160206040518083038186803b158015610fc257600080fd5b505afa158015610fd6573d6000803e3d6000fd5b505050506040513d601f19601f82011682018060405250810190610ffa9190612875565b73ffffffffffffffffffffffffffffffffffffffff16146110ba57600260009054906101000a900473ffffffffffffffffffffffffffffffffffffffff1673ffffffffffffffffffffffffffffffffffffffff16630dfe16816040518163ffffffff1660e01b815260040160206040518083038186803b15801561107d57600080fd5b505afa158015611091573d6000803e3d6000fd5b505050506040513d601f19601f820116820180604052508101906110b59190612875565b61115b565b600260009054906101000a900473ffffffffffffffffffffffffffffffffffffffff1673ffffffffffffffffffffffffffffffffffffffff1663d21220a76040518163ffffffff1660e01b815260040160206040518083038186803b15801561112257600080fd5b505afa158015611136573d6000803e3d6000fd5b505050506040513d601f19601f8201168201806040525081019061115a9190612875565b5b905060008173ffffffffffffffffffffffffffffffffffffffff166370a08231306040518263ffffffff1660e01b81526004016111989190612e49565b60206040518083038186803b1580156111b057600080fd5b505afa1580156111c4573d6000803e3d6000fd5b505050506040513d601f19601f820116820180604052508101906111e891906129f7565b9050809250505090565b600560009054906101000a900473ffffffffffffffffffffffffffffffffffffffff1673ffffffffffffffffffffffffffffffffffffffff1663095ea7b3600460009054906101000a900473ffffffffffffffffffffffffffffffffffffffff16836040518363ffffffff1660e01b8152600401611271929190612eee565b602060405180830381600087803b15801561128b57600080fd5b505af115801561129f573d6000803e3d6000fd5b505050506040513d601f19601f820116820180604052508101906112c391906128da565b5060006040518061010001604052808473ffffffffffffffffffffffffffffffffffffffff168152602001600560009054906101000a900473ffffffffffffffffffffffffffffffffffffffff1673ffffffffffffffffffffffffffffffffffffffff168573ffffffffffffffffffffffffffffffffffffffff16146113e857600260009054906101000a900473ffffffffffffffffffffffffffffffffffffffff1673ffffffffffffffffffffffffffffffffffffffff1663d21220a76040518163ffffffff1660e01b815260040160206040518083038186803b1580156113ab57600080fd5b505afa1580156113bf573d6000803e3d6000fd5b505050506040513d601f19601f820116820180604052508101906113e39190612875565b611489565b600260009054906101000a900473ffffffffffffffffffffffffffffffffffffffff1673ffffffffffffffffffffffffffffffffffffffff16630dfe16816040518163ffffffff1660e01b815260040160206040518083038186803b15801561145057600080fd5b505afa158015611464573d6000803e3d6000fd5b505050506040513d601f19601f820116820180604052508101906114889190612875565b5b73ffffffffffffffffffffffffffffffffffffffff168152602001600260009054906101000a900473ffffffffffffffffffffffffffffffffffffffff1673ffffffffffffffffffffffffffffffffffffffff1663ddca3f436040518163ffffffff1660e01b815260040160206040518083038186803b15801561150c57600080fd5b505afa158015611520573d6000803e3d6000fd5b505050506040513d601f19601f8201168201806040525081019061154491906129a5565b62ffffff1681526020013073ffffffffffffffffffffffffffffffffffffffff16815260200142815260200183815260200160008152602001600073ffffffffffffffffffffffffffffffffffffffff1681525090506000600460009054906101000a900473ffffffffffffffffffffffffffffffffffffffff1673ffffffffffffffffffffffffffffffffffffffff1663414bf389836040518263ffffffff1660e01b81526004016115f79190612f4d565b602060405180830381600087803b15801561161157600080fd5b505af1158015611625573d6000803e3d6000fd5b505050506040513d601f19601f8201168201806040525081019061164991906129f7565b9050611654816123b4565b60006040518060c0016040528060075481526020018381526020016116776116a3565b81526020016000815260200160008152602001428152509050611699816105e5565b5050505050505050565b6000600560009054906101000a900473ffffffffffffffffffffffffffffffffffffffff1673ffffffffffffffffffffffffffffffffffffffff166370a08231306040518263ffffffff1660e01b81526004016117009190612e49565b60206040518083038186803b15801561171857600080fd5b505afa15801561172c573d6000803e3d6000fd5b505050506040513d601f19601f8201168201806040525081019061175091906129f7565b905090565b600560009054906101000a900473ffffffffffffffffffffffffffffffffffffffff1673ffffffffffffffffffffffffffffffffffffffff1663d0e30db0346040518263ffffffff1660e01b81526004016000604051808303818588803b1580156117bf57600080fd5b505af11580156117d3573d6000803e3d6000fd5b5050505050600560009054906101000a900473ffffffffffffffffffffffffffffffffffffffff1673ffffffffffffffffffffffffffffffffffffffff1663095ea7b3600460009054906101000a900473ffffffffffffffffffffffffffffffffffffffff16836040518363ffffffff1660e01b8152600401611857929190612eee565b602060405180830381600087803b15801561187157600080fd5b505af1158015611885573d6000803e3d6000fd5b505050506040513d601f19601f820116820180604052508101906118a991906128da565b506000604051806101000160405280600260009054906101000a900473ffffffffffffffffffffffffffffffffffffffff1673ffffffffffffffffffffffffffffffffffffffff1663d21220a76040518163ffffffff1660e01b815260040160206040518083038186803b15801561192057600080fd5b505afa158015611934573d6000803e3d6000fd5b505050506040513d601f19601f820116820180604052508101906119589190612875565b73ffffffffffffffffffffffffffffffffffffffff168152602001600260009054906101000a900473ffffffffffffffffffffffffffffffffffffffff1673ffffffffffffffffffffffffffffffffffffffff16630dfe16816040518163ffffffff1660e01b815260040160206040518083038186803b1580156119db57600080fd5b505afa1580156119ef573d6000803e3d6000fd5b505050506040513d601f19601f82011682018060405250810190611a139190612875565b73ffffffffffffffffffffffffffffffffffffffff168152602001600260009054906101000a900473ffffffffffffffffffffffffffffffffffffffff1673ffffffffffffffffffffffffffffffffffffffff1663ddca3f436040518163ffffffff1660e01b815260040160206040518083038186803b158015611a9657600080fd5b505afa158015611aaa573d6000803e3d6000fd5b505050506040513d601f19601f82011682018060405250810190611ace91906129a5565b62ffffff1681526020013073ffffffffffffffffffffffffffffffffffffffff16815260200142815260200183815260200160008152602001600073ffffffffffffffffffffffffffffffffffffffff1681525090506000600460009054906101000a900473ffffffffffffffffffffffffffffffffffffffff1673ffffffffffffffffffffffffffffffffffffffff1663414bf389836040518263ffffffff1660e01b8152600401611b819190612f4d565b602060405180830381600087803b158015611b9b57600080fd5b505af1158015611baf573d6000803e3d6000fd5b505050506040513d601f19601f82011682018060405250810190611bd391906129f7565b9050611c4a6040518060400160405280600881526020017f7377617070656420000000000000000000000000000000000000000000000000815250846040518060400160405280600381526020017f657468000000000000000000000000000000000000000000000000000000000081525061244d565b611cbf6040518060400160405280600981526020017f7265636569766564200000000000000000000000000000000000000000000000815250826040518060400160405280600481526020017f757364630000000000000000000000000000000000000000000000000000000081525061244d565b60006040518060c001604052806007548152602001838152602001611ce26116a3565b81526020016000815260200160008152602001428152509050611d04816105e5565b50505050505050565b6000670de0b6b3a764000090506000600260009054906101000a900473ffffffffffffffffffffffffffffffffffffffff1673ffffffffffffffffffffffffffffffffffffffff1663ddca3f436040518163ffffffff1660e01b815260040160206040518083038186803b158015611d8457600080fd5b505afa158015611d98573d6000803e3d6000fd5b505050506040513d601f19601f82011682018060405250810190611dbc91906129a5565b90506000600360009054906101000a900473ffffffffffffffffffffffffffffffffffffffff1673ffffffffffffffffffffffffffffffffffffffff1663f7729d43600260009054906101000a900473ffffffffffffffffffffffffffffffffffffffff1673ffffffffffffffffffffffffffffffffffffffff1663d21220a76040518163ffffffff1660e01b815260040160206040518083038186803b158015611e6657600080fd5b505afa158015611e7a573d6000803e3d6000fd5b505050506040513d601f19601f82011682018060405250810190611e9e9190612875565b600260009054906101000a900473ffffffffffffffffffffffffffffffffffffffff1673ffffffffffffffffffffffffffffffffffffffff16630dfe16816040518163ffffffff1660e01b815260040160206040518083038186803b158015611f0657600080fd5b505afa158015611f1a573d6000803e3d6000fd5b505050506040513d601f19601f82011682018060405250810190611f3e9190612875565b8587866040518663ffffffff1660e01b8152600401611f61959493929190612e9b565b602060405180830381600087803b158015611f7b57600080fd5b505af1158015611f8f573d6000803e3d6000fd5b505050506040513d601f19601f82011682018060405250810190611fb391906129f7565b600b81905550505050565b6000600260009054906101000a900473ffffffffffffffffffffffffffffffffffffffff1673ffffffffffffffffffffffffffffffffffffffff16630dfe16816040518163ffffffff1660e01b815260040160206040518083038186803b15801561202857600080fd5b505afa15801561203c573d6000803e3d6000fd5b505050506040513d601f19601f820116820180604052508101906120609190612875565b905090565b60075481565b6000600c60003373ffffffffffffffffffffffffffffffffffffffff1673ffffffffffffffffffffffffffffffffffffffff16815260200190815260200160002060000160008373ffffffffffffffffffffffffffffffffffffffff1673ffffffffffffffffffffffffffffffffffffffff168152602001908152602001600020549050919050565b600a5481565b600b5481565b6121fb816040516024018080602001828103825283818151815260200191508051906020019080838360005b8381101561214757808201518184015260208101905061212c565b50505050905090810190601f1680156121745780820380516001836020036101000a031916815260200191505b50925050506040516020818303038152906040527f41304fac000000000000000000000000000000000000000000000000000000007bffffffffffffffffffffffffffffffffffffffffffffffffffffffff19166020820180517bffffffffffffffffffffffffffffffffffffffffffffffffffffffff83818316178352505050506125c2565b50565b61230182826040516024018080602001838152602001828103825284818151815260200191508051906020019080838360005b8381101561224c578082015181840152602081019050612231565b50505050905090810190601f1680156122795780820380516001836020036101000a031916815260200191505b5093505050506040516020818303038152906040527f9710a9d0000000000000000000000000000000000000000000000000000000007bffffffffffffffffffffffffffffffffffffffffffffffffffffffff19166020820180517bffffffffffffffffffffffffffffffffffffffffffffffffffffffff83818316178352505050506125c2565b5050565b6123b181604051602401808273ffffffffffffffffffffffffffffffffffffffff1681526020019150506040516020818303038152906040527f2c2ecbc2000000000000000000000000000000000000000000000000000000007bffffffffffffffffffffffffffffffffffffffffffffffffffffffff19166020820180517bffffffffffffffffffffffffffffffffffffffffffffffffffffffff83818316178352505050506125c2565b50565b61244a81604051602401808281526020019150506040516020818303038152906040527ff5b1bba9000000000000000000000000000000000000000000000000000000007bffffffffffffffffffffffffffffffffffffffffffffffffffffffff19166020820180517bffffffffffffffffffffffffffffffffffffffffffffffffffffffff83818316178352505050506125c2565b50565b6125bd838383604051602401808060200184815260200180602001838103835286818151815260200191508051906020019080838360005b838110156124a0578082015181840152602081019050612485565b50505050905090810190601f1680156124cd5780820380516001836020036101000a031916815260200191505b50838103825284818151815260200191508051906020019080838360005b838110156125065780820151818401526020810190506124eb565b50505050905090810190601f1680156125335780820380516001836020036101000a031916815260200191505b50955050505050506040516020818303038152906040527fa3f5c739000000000000000000000000000000000000000000000000000000007bffffffffffffffffffffffffffffffffffffffffffffffffffffffff19166020820180517bffffffffffffffffffffffffffffffffffffffffffffffffffffffff83818316178352505050506125c2565b505050565b60008151905060006a636f6e736f6c652e6c6f679050602083016000808483855afa5050505050565b6000813590506125fa8161313b565b92915050565b60008151905061260f8161313b565b92915050565b60008151905061262481613152565b92915050565b60008135905061263981613169565b92915050565b600060c0828403121561265157600080fd5b61265b60c0613052565b9050600061266b84828501612822565b600083015250602061267f84828501612822565b602083015250604061269384828501612822565b60408301525060606126a784828501612822565b60608301525060806126bb84828501612822565b60808301525060a06126cf84828501612822565b60a08301525092915050565b600061016082840312156126ee57600080fd5b6126f9610160613052565b90506000612709848285016125eb565b600083015250602061271d848285016125eb565b6020830152506040612731848285016127f8565b60408301525060606127458482850161262a565b60608301525060806127598482850161262a565b60808301525060a061276d84828501612822565b60a08301525060c061278184828501612822565b60c08301525060e061279584828501612822565b60e0830152506101006127aa84828501612822565b610100830152506101206127c0848285016125eb565b610120830152506101406127d684828501612822565b6101408301525092915050565b6000815190506127f281613180565b92915050565b60008135905061280781613197565b92915050565b60008151905061281c81613197565b92915050565b600081359050612831816131ae565b92915050565b600081519050612846816131ae565b92915050565b60006020828403121561285e57600080fd5b600061286c848285016125eb565b91505092915050565b60006020828403121561288757600080fd5b600061289584828501612600565b91505092915050565b600080604083850312156128b157600080fd5b60006128bf858286016125eb565b92505060206128d085828601612822565b9150509250929050565b6000602082840312156128ec57600080fd5b60006128fa84828501612615565b91505092915050565b600060c0828403121561291557600080fd5b60006129238482850161263f565b91505092915050565b6000610160828403121561293f57600080fd5b600061294d848285016126db565b91505092915050565b60008060006060848603121561296b57600080fd5b6000612979868287016127e3565b935050602061298a86828701612837565b925050604061299b86828701612837565b9150509250925092565b6000602082840312156129b757600080fd5b60006129c58482850161280d565b91505092915050565b6000602082840312156129e057600080fd5b60006129ee84828501612822565b91505092915050565b600060208284031215612a0957600080fd5b6000612a1784828501612837565b91505092915050565b60008060008060808587031215612a3657600080fd5b6000612a4487828801612837565b9450506020612a55878288016127e3565b9350506040612a6687828801612837565b9250506060612a7787828801612837565b91505092959194509250565b60008060408385031215612a9657600080fd5b6000612aa485828601612837565b9250506020612ab585828601612837565b9150509250929050565b612ac881613103565b82525050565b612ad781613083565b82525050565b612ae681613083565b82525050565b612af5816130a1565b82525050565b608082016000820151612b116000850182612e10565b506020820151612b246020850182612ace565b506040820151612b376040850182612db6565b506060820151612b4a6060850182612db6565b50505050565b60a082016000820151612b666000850182612e10565b506020820151612b796020850182612db6565b506040820151612b8c6040850182612e10565b506060820151612b9f6060850182612e10565b506080820151612bb26080850182612e10565b50505050565b61010082016000820151612bcf6000850182612ace565b506020820151612be26020850182612ace565b506040820151612bf56040850182612df2565b506060820151612c086060850182612ace565b506080820151612c1b6080850182612e10565b5060a0820151612c2e60a0850182612e10565b5060c0820151612c4160c0850182612e10565b5060e0820151612c5460e0850182612dd4565b50505050565b60c082016000820151612c706000850182612e10565b506020820151612c836020850182612e10565b506040820151612c966040850182612e10565b506060820151612ca96060850182612e10565b506080820151612cbc6080850182612e10565b5060a0820151612ccf60a0850182612e10565b50505050565b61016082016000820151612cec6000850182612ace565b506020820151612cff6020850182612ace565b506040820151612d126040850182612df2565b506060820151612d256060850182612aec565b506080820151612d386080850182612aec565b5060a0820151612d4b60a0850182612e10565b5060c0820151612d5e60c0850182612e10565b5060e0820151612d7160e0850182612e10565b50610100820151612d86610100850182612e10565b50610120820151612d9b610120850182612ace565b50610140820151612db0610140850182612e10565b50505050565b612dbf816130ae565b82525050565b612dce816130ae565b82525050565b612ddd816130ca565b82525050565b612dec816130ca565b82525050565b612dfb816130ea565b82525050565b612e0a816130ea565b82525050565b612e19816130f9565b82525050565b612e28816130f9565b82525050565b6000602082019050612e436000830184612add565b92915050565b6000602082019050612e5e6000830184612abf565b92915050565b6000606082019050612e796000830186612abf565b612e866020830185612abf565b612e936040830184612e1f565b949350505050565b600060a082019050612eb06000830188612add565b612ebd6020830187612add565b612eca6040830186612e01565b612ed76060830185612e1f565b612ee46080830184612de3565b9695505050505050565b6000604082019050612f036000830185612add565b612f106020830184612e1f565b9392505050565b6000608082019050612f2c6000830184612afb565b92915050565b600060a082019050612f476000830184612b50565b92915050565b600061010082019050612f636000830184612bb8565b92915050565b600060c082019050612f7e6000830184612c5a565b92915050565b600061016082019050612f9a6000830184612cd5565b92915050565b6000602082019050612fb56000830184612dc5565b92915050565b6000606082019050612fd06000830186612dc5565b612fdd6020830185612e1f565b612fea6040830184612e1f565b949350505050565b60006020820190506130076000830184612e1f565b92915050565b60006080820190506130226000830187612e1f565b61302f6020830186612dc5565b61303c6040830185612e1f565b6130496060830184612e1f565b95945050505050565b6000604051905081810181811067ffffffffffffffff8211171561307957613078613139565b5b8060405250919050565b600061308e826130ca565b9050919050565b60008115159050919050565b60008160020b9050919050565b60006fffffffffffffffffffffffffffffffff82169050919050565b600073ffffffffffffffffffffffffffffffffffffffff82169050919050565b600062ffffff82169050919050565b6000819050919050565b600061310e82613115565b9050919050565b600061312082613127565b9050919050565b6000613132826130ca565b9050919050565bfe5b61314481613083565b811461314f57600080fd5b50565b61315b81613095565b811461316657600080fd5b50565b613172816130a1565b811461317d57600080fd5b50565b613189816130ae565b811461319457600080fd5b50565b6131a0816130ea565b81146131ab57600080fd5b50565b6131b7816130f9565b81146131c257600080fd5b5056fea264697066735822122010f9d4c94d3beb7867d9256c43d74a793f8a6ed78b038df51b31d2f59da3aa3664736f6c63430007060033",
  "linkReferences": {},
  "deployedLinkReferences": {}
}