{
  "_format": "hh-sol-artifact-1",
  "contractName": "UnifiVault",
  "sourceName": "contracts/UnifiVault.sol",
  "abi": [
    {
      "inputs": [
        {
          "internalType": "contract IUniswapV3Factory",
          "name": "_factory",
          "type": "address"
        },
        {
          "internalType": "contract INonfungiblePositionManager",
          "name": "_nonfungiblePositionManager",
          "type": "address"
        },
        {
          "internalType": "contract IUniswapV3Pool",
          "name": "_pool",
          "type": "address"
        }
      ],
      "stateMutability": "nonpayable",
      "type": "constructor"
    },
    {
      "inputs": [
        {
          "components": [
            {
              "internalType": "uint256",
              "name": "tokenId",
              "type": "uint256"
            },
            {
              "internalType": "uint256",
              "name": "amount0Desired",
              "type": "uint256"
            },
            {
              "internalType": "uint256",
              "name": "amount1Desired",
              "type": "uint256"
            },
            {
              "internalType": "uint256",
              "name": "amount0Min",
              "type": "uint256"
            },
            {
              "internalType": "uint256",
              "name": "amount1Min",
              "type": "uint256"
            },
            {
              "internalType": "uint256",
              "name": "deadline",
              "type": "uint256"
            }
          ],
          "internalType": "struct INonfungiblePositionManager.IncreaseLiquidityParams",
          "name": "params",
          "type": "tuple"
        }
      ],
      "name": "addLiquidity",
      "outputs": [
        {
          "internalType": "uint128",
          "name": "liquidity",
          "type": "uint128"
        },
        {
          "internalType": "uint256",
          "name": "amount0",
          "type": "uint256"
        },
        {
          "internalType": "uint256",
          "name": "amount1",
          "type": "uint256"
        }
      ],
      "stateMutability": "nonpayable",
      "type": "function"
    },
    {
      "inputs": [
        {
          "internalType": "uint256",
          "name": "amountIn",
          "type": "uint256"
        }
      ],
      "name": "addLiquidityEth",
      "outputs": [],
      "stateMutability": "payable",
      "type": "function"
    },
    {
      "inputs": [
        {
          "internalType": "address",
          "name": "_tokenAddress",
          "type": "address"
        },
        {
          "internalType": "uint256",
          "name": "_amount",
          "type": "uint256"
        }
      ],
      "name": "deposit",
      "outputs": [],
      "stateMutability": "nonpayable",
      "type": "function"
    },
    {
      "inputs": [],
      "name": "ethPrice",
      "outputs": [
        {
          "internalType": "uint256",
          "name": "",
          "type": "uint256"
        }
      ],
      "stateMutability": "view",
      "type": "function"
    },
    {
      "inputs": [
        {
          "internalType": "address",
          "name": "tokenAddress",
          "type": "address"
        }
      ],
      "name": "getBalance",
      "outputs": [
        {
          "internalType": "uint256",
          "name": "tokenAmount",
          "type": "uint256"
        }
      ],
      "stateMutability": "view",
      "type": "function"
    },
    {
      "inputs": [],
      "name": "getEthBalance",
      "outputs": [
        {
          "internalType": "uint256",
          "name": "",
          "type": "uint256"
        }
      ],
      "stateMutability": "view",
      "type": "function"
    },
    {
      "inputs": [],
      "name": "getToken0",
      "outputs": [
        {
          "internalType": "address",
          "name": "",
          "type": "address"
        }
      ],
      "stateMutability": "view",
      "type": "function"
    },
    {
      "inputs": [],
      "name": "getToken1",
      "outputs": [
        {
          "internalType": "address",
          "name": "",
          "type": "address"
        }
      ],
      "stateMutability": "view",
      "type": "function"
    },
    {
      "inputs": [],
      "name": "getTokenBalance",
      "outputs": [
        {
          "internalType": "uint256",
          "name": "",
          "type": "uint256"
        }
      ],
      "stateMutability": "view",
      "type": "function"
    },
    {
      "inputs": [],
      "name": "getTotalLiquidity",
      "outputs": [
        {
          "internalType": "uint256",
          "name": "",
          "type": "uint256"
        }
      ],
      "stateMutability": "view",
      "type": "function"
    },
    {
      "inputs": [
        {
          "internalType": "address",
          "name": "tokenAddress",
          "type": "address"
        }
      ],
      "name": "getVaultBalance",
      "outputs": [
        {
          "internalType": "uint256",
          "name": "",
          "type": "uint256"
        }
      ],
      "stateMutability": "view",
      "type": "function"
    },
    {
      "inputs": [],
      "name": "getWethBalance",
      "outputs": [
        {
          "internalType": "uint256",
          "name": "",
          "type": "uint256"
        }
      ],
      "stateMutability": "view",
      "type": "function"
    },
    {
      "inputs": [
        {
          "components": [
            {
              "internalType": "address",
              "name": "token0",
              "type": "address"
            },
            {
              "internalType": "address",
              "name": "token1",
              "type": "address"
            },
            {
              "internalType": "uint24",
              "name": "fee",
              "type": "uint24"
            },
            {
              "internalType": "int24",
              "name": "tickLower",
              "type": "int24"
            },
            {
              "internalType": "int24",
              "name": "tickUpper",
              "type": "int24"
            },
            {
              "internalType": "uint256",
              "name": "amount0Desired",
              "type": "uint256"
            },
            {
              "internalType": "uint256",
              "name": "amount1Desired",
              "type": "uint256"
            },
            {
              "internalType": "uint256",
              "name": "amount0Min",
              "type": "uint256"
            },
            {
              "internalType": "uint256",
              "name": "amount1Min",
              "type": "uint256"
            },
            {
              "internalType": "address",
              "name": "recipient",
              "type": "address"
            },
            {
              "internalType": "uint256",
              "name": "deadline",
              "type": "uint256"
            }
          ],
          "internalType": "struct INonfungiblePositionManager.MintParams",
          "name": "params",
          "type": "tuple"
        }
      ],
      "name": "mintPosition",
      "outputs": [
        {
          "internalType": "uint256",
          "name": "tokenId",
          "type": "uint256"
        },
        {
          "internalType": "uint128",
          "name": "liquidity",
          "type": "uint128"
        },
        {
          "internalType": "uint256",
          "name": "amount0",
          "type": "uint256"
        },
        {
          "internalType": "uint256",
          "name": "amount1",
          "type": "uint256"
        }
      ],
      "stateMutability": "nonpayable",
      "type": "function"
    },
    {
      "inputs": [],
      "name": "priceToken0",
      "outputs": [
        {
          "internalType": "uint256",
          "name": "",
          "type": "uint256"
        }
      ],
      "stateMutability": "view",
      "type": "function"
    },
    {
      "inputs": [],
      "name": "requiredAmount0",
      "outputs": [
        {
          "internalType": "uint256",
          "name": "",
          "type": "uint256"
        }
      ],
      "stateMutability": "view",
      "type": "function"
    },
    {
      "inputs": [],
      "name": "requiredAmount1",
      "outputs": [
        {
          "internalType": "uint256",
          "name": "",
          "type": "uint256"
        }
      ],
      "stateMutability": "view",
      "type": "function"
    },
    {
      "inputs": [],
      "name": "totalLiquidity",
      "outputs": [
        {
          "internalType": "uint128",
          "name": "",
          "type": "uint128"
        }
      ],
      "stateMutability": "view",
      "type": "function"
    },
    {
      "inputs": [],
      "name": "updateWethPrice",
      "outputs": [],
      "stateMutability": "nonpayable",
      "type": "function"
    },
    {
      "inputs": [],
      "name": "vaultTokenId",
      "outputs": [
        {
          "internalType": "uint256",
          "name": "",
          "type": "uint256"
        }
      ],
      "stateMutability": "view",
      "type": "function"
    },
    {
      "inputs": [],
      "name": "withdraw",
      "outputs": [],
      "stateMutability": "nonpayable",
      "type": "function"
    },
    {
      "inputs": [
        {
          "internalType": "address",
          "name": "tokenAddress",
          "type": "address"
        },
        {
          "internalType": "uint256",
          "name": "amountIn",
          "type": "uint256"
        }
      ],
      "name": "zapToken",
      "outputs": [],
      "stateMutability": "nonpayable",
      "type": "function"
    },
    {
      "stateMutability": "payable",
      "type": "receive"
    }
  ],
  "bytecode": "0x608060405273b27308f9f90d607463bb33ea1bebb41c27ce5ab6600360006101000a81548173ffffffffffffffffffffffffffffffffffffffff021916908373ffffffffffffffffffffffffffffffffffffffff16021790555073e592427a0aece92de3edee1f18e0157c05861564600460006101000a81548173ffffffffffffffffffffffffffffffffffffffff021916908373ffffffffffffffffffffffffffffffffffffffff16021790555073c02aaa39b223fe8d0a0e5c4f27ead9083c756cc2600560006101000a81548173ffffffffffffffffffffffffffffffffffffffff021916908373ffffffffffffffffffffffffffffffffffffffff1602179055503480156200011057600080fd5b50604051620037f6380380620037f68339818101604052810190620001369190620003c3565b620001816040518060400160405280601681526020017f4465706c6f79696e67204c697175697469647950726f000000000000000000008152506200024c60201b620022141760201c565b826000806101000a81548173ffffffffffffffffffffffffffffffffffffffff021916908373ffffffffffffffffffffffffffffffffffffffff16021790555081600160006101000a81548173ffffffffffffffffffffffffffffffffffffffff021916908373ffffffffffffffffffffffffffffffffffffffff16021790555080600260006101000a81548173ffffffffffffffffffffffffffffffffffffffff021916908373ffffffffffffffffffffffffffffffffffffffff160217905550505050620004d7565b62000352816040516024018080602001828103825283818151815260200191508051906020019080838360005b838110156200029657808201518184015260208101905062000279565b50505050905090810190601f168015620002c45780820380516001836020036101000a031916815260200191505b50925050506040516020818303038152906040527f41304fac000000000000000000000000000000000000000000000000000000007bffffffffffffffffffffffffffffffffffffffffffffffffffffffff19166020820180517bffffffffffffffffffffffffffffffffffffffffffffffffffffffff83818316178352505050506200035560201b60201c565b50565b60008151905060006a636f6e736f6c652e6c6f679050602083016000808483855afa5050505050565b6000815190506200038f8162000489565b92915050565b600081519050620003a681620004a3565b92915050565b600081519050620003bd81620004bd565b92915050565b600080600060608486031215620003d957600080fd5b6000620003e98682870162000395565b9350506020620003fc868287016200037e565b92505060406200040f86828701620003ac565b9150509250925092565b6000620004268262000469565b9050919050565b60006200043a8262000419565b9050919050565b60006200044e8262000419565b9050919050565b6000620004628262000419565b9050919050565b600073ffffffffffffffffffffffffffffffffffffffff82169050919050565b62000494816200042d565b8114620004a057600080fd5b50565b620004ae8162000441565b8114620004ba57600080fd5b50565b620004c88162000455565b8114620004d457600080fd5b50565b61330f80620004e76000396000f3fe60806040526004361061012e5760003560e01c806382b2e257116100ab578063ba94a3151161006f578063ba94a315146104df578063d3d7c0021461050a578063f657a7fe14610547578063f8b2cb4f14610572578063f8e80d86146105af578063ff186b2e146105da57610267565b806382b2e2571461042d57806391a8ae9f146104585780639dd58b5814610481578063a6c9ef98146104ac578063abfb8dc2146104c857610267565b806347e7ef24116100f257806347e7ef24146103435780635f1ee5c41461036c5780636f26a710146103ac57806370ed0ada146103d757806372ff22a01461040257610267565b806315770f921461026c57806328f70549146102975780632f45d9b1146102c257806335c7e925146103015780633ccfd60b1461032c57610267565b3661026757600560009054906101000a900473ffffffffffffffffffffffffffffffffffffffff1673ffffffffffffffffffffffffffffffffffffffff1663d0e30db0346040518263ffffffff1660e01b81526004016000604051808303818588803b15801561019d57600080fd5b505af11580156101b1573d6000803e3d6000fd5b505050505034600c60003373ffffffffffffffffffffffffffffffffffffffff1673ffffffffffffffffffffffffffffffffffffffff1681526020019081526020016000206000016000600560009054906101000a900473ffffffffffffffffffffffffffffffffffffffff1673ffffffffffffffffffffffffffffffffffffffff1673ffffffffffffffffffffffffffffffffffffffff16815260200190815260200160002060008282540192505081905550005b600080fd5b34801561027857600080fd5b50610281610605565b60405161028e91906130b4565b60405180910390f35b3480156102a357600080fd5b506102ac610627565b6040516102b99190613106565b60405180910390f35b3480156102ce57600080fd5b506102e960048036038101906102e49190612a17565b61062d565b6040516102f8939291906130cf565b60405180910390f35b34801561030d57600080fd5b5061031661074c565b6040516103239190613106565b60405180910390f35b34801561033857600080fd5b50610341610784565b005b34801561034f57600080fd5b5061036a600480360381019061036591906129b2565b610a9b565b005b34801561037857600080fd5b50610393600480360381019061038e9190612a40565b610c12565b6040516103a39493929190613121565b60405180910390f35b3480156103b857600080fd5b506103c1610ef9565b6040516103ce9190612f42565b60405180910390f35b3480156103e357600080fd5b506103ec610fa0565b6040516103f99190613106565b60405180910390f35b34801561040e57600080fd5b50610417610fa8565b6040516104249190613106565b60405180910390f35b34801561043957600080fd5b50610442610fae565b60405161044f9190613106565b60405180910390f35b34801561046457600080fd5b5061047f600480360381019061047a91906129b2565b611274565b005b34801561048d57600080fd5b50610496611725565b6040516104a39190613106565b60405180910390f35b6104c660048036038101906104c19190612ae2565b6117d7565b005b3480156104d457600080fd5b506104dd611d8f565b005b3480156104eb57600080fd5b506104f4612040565b6040516105019190612f42565b60405180910390f35b34801561051657600080fd5b50610531600480360381019061052c9190612960565b6120e7565b60405161053e9190613106565b60405180910390f35b34801561055357600080fd5b5061055c612179565b6040516105699190613106565b60405180910390f35b34801561057e57600080fd5b5061059960048036038101906105949190612960565b61217f565b6040516105a69190613106565b60405180910390f35b3480156105bb57600080fd5b506105c4612208565b6040516105d19190613106565b60405180910390f35b3480156105e657600080fd5b506105ef61220e565b6040516105fc9190613106565b60405180910390f35b600660009054906101000a90046fffffffffffffffffffffffffffffffff1681565b60095481565b6000806000600160009054906101000a900473ffffffffffffffffffffffffffffffffffffffff1673ffffffffffffffffffffffffffffffffffffffff1663219f5d17856040518263ffffffff1660e01b815260040161068d919061307d565b606060405180830381600087803b1580156106a757600080fd5b505af11580156106bb573d6000803e3d6000fd5b505050506040513d601f19601f820116820180604052508101906106df9190612a6a565b80935081945082955050505082600660008282829054906101000a90046fffffffffffffffffffffffffffffffff160192506101000a8154816fffffffffffffffffffffffffffffffff02191690836fffffffffffffffffffffffffffffffff1602179055509193909250565b6000600660009054906101000a90046fffffffffffffffffffffffffffffffff166fffffffffffffffffffffffffffffffff16905090565b6107c56040518060400160405280600c81526020017f7661756c74546f6b656e49640000000000000000000000000000000000000000815250600754612312565b6108346040518060400160405280600f81526020017f746f74616c204c69717569646974790000000000000000000000000000000000815250600660009054906101000a90046fffffffffffffffffffffffffffffffff166fffffffffffffffffffffffffffffffff16612312565b60006040518060a001604052806007548152602001600660009054906101000a90046fffffffffffffffffffffffffffffffff166fffffffffffffffffffffffffffffffff1681526020016000815260200160008152602001428152509050600080600160009054906101000a900473ffffffffffffffffffffffffffffffffffffffff1673ffffffffffffffffffffffffffffffffffffffff16630c49ccbe846040518263ffffffff1660e01b81526004016108f19190613046565b6040805180830381600087803b15801561090a57600080fd5b505af115801561091e573d6000803e3d6000fd5b505050506040513d601f19601f820116820180604052508101906109429190612b97565b915091506000600660006101000a8154816fffffffffffffffffffffffffffffffff02191690836fffffffffffffffffffffffffffffffff1602179055506000604051806080016040528060075481526020013073ffffffffffffffffffffffffffffffffffffffff168152602001846fffffffffffffffffffffffffffffffff168152602001836fffffffffffffffffffffffffffffffff168152509050600160009054906101000a900473ffffffffffffffffffffffffffffffffffffffff1673ffffffffffffffffffffffffffffffffffffffff1663fc6f7865826040518263ffffffff1660e01b8152600401610a3c919061302b565b6040805180830381600087803b158015610a5557600080fd5b505af1158015610a69573d6000803e3d6000fd5b505050506040513d601f19601f82011682018060405250810190610a8d9190612b97565b809350819450505050505050565b610ad96040518060400160405280600781526020017f6465706f73697400000000000000000000000000000000000000000000000000815250612214565b610ae282612419565b610aeb816124c8565b60008290508073ffffffffffffffffffffffffffffffffffffffff166323b872dd3330856040518463ffffffff1660e01b8152600401610b2d93929190612f78565b602060405180830381600087803b158015610b4757600080fd5b505af1158015610b5b573d6000803e3d6000fd5b505050506040513d601f19601f82011682018060405250810190610b7f91906129ee565b5081600c60003373ffffffffffffffffffffffffffffffffffffffff1673ffffffffffffffffffffffffffffffffffffffff16815260200190815260200160002060000160008573ffffffffffffffffffffffffffffffffffffffff1673ffffffffffffffffffffffffffffffffffffffff16815260200190815260200160002060008282540192505081905550505050565b600080600080610c20612040565b73ffffffffffffffffffffffffffffffffffffffff1663095ea7b3600160009054906101000a900473ffffffffffffffffffffffffffffffffffffffff167fffffffffffffffffffffffffffffffffffffffffffffffffffffffffffffffff6040518363ffffffff1660e01b8152600401610c9c929190613002565b602060405180830381600087803b158015610cb657600080fd5b505af1158015610cca573d6000803e3d6000fd5b505050506040513d601f19601f82011682018060405250810190610cee91906129ee565b50610cf7610ef9565b73ffffffffffffffffffffffffffffffffffffffff1663095ea7b3600160009054906101000a900473ffffffffffffffffffffffffffffffffffffffff167fffffffffffffffffffffffffffffffffffffffffffffffffffffffffffffffff6040518363ffffffff1660e01b8152600401610d73929190613002565b602060405180830381600087803b158015610d8d57600080fd5b505af1158015610da1573d6000803e3d6000fd5b505050506040513d601f19601f82011682018060405250810190610dc591906129ee565b50600160009054906101000a900473ffffffffffffffffffffffffffffffffffffffff1673ffffffffffffffffffffffffffffffffffffffff166388316456866040518263ffffffff1660e01b8152600401610e219190613098565b608060405180830381600087803b158015610e3b57600080fd5b505af1158015610e4f573d6000803e3d6000fd5b505050506040513d601f19601f82011682018060405250810190610e739190612b34565b8094508195508296508397505050505082600660008282829054906101000a90046fffffffffffffffffffffffffffffffff160192506101000a8154816fffffffffffffffffffffffffffffffff02191690836fffffffffffffffffffffffffffffffff160217905550836007819055508160098190555080600a819055509193509193565b6000600260009054906101000a900473ffffffffffffffffffffffffffffffffffffffff1673ffffffffffffffffffffffffffffffffffffffff1663d21220a76040518163ffffffff1660e01b815260040160206040518083038186803b158015610f6357600080fd5b505afa158015610f77573d6000803e3d6000fd5b505050506040513d601f19601f82011682018060405250810190610f9b9190612989565b905090565b600047905090565b60085481565b60008073c02aaa39b223fe8d0a0e5c4f27ead9083c756cc273ffffffffffffffffffffffffffffffffffffffff16600260009054906101000a900473ffffffffffffffffffffffffffffffffffffffff1673ffffffffffffffffffffffffffffffffffffffff16630dfe16816040518163ffffffff1660e01b815260040160206040518083038186803b15801561104457600080fd5b505afa158015611058573d6000803e3d6000fd5b505050506040513d601f19601f8201168201806040525081019061107c9190612989565b73ffffffffffffffffffffffffffffffffffffffff161461113c57600260009054906101000a900473ffffffffffffffffffffffffffffffffffffffff1673ffffffffffffffffffffffffffffffffffffffff16630dfe16816040518163ffffffff1660e01b815260040160206040518083038186803b1580156110ff57600080fd5b505afa158015611113573d6000803e3d6000fd5b505050506040513d601f19601f820116820180604052508101906111379190612989565b6111dd565b600260009054906101000a900473ffffffffffffffffffffffffffffffffffffffff1673ffffffffffffffffffffffffffffffffffffffff1663d21220a76040518163ffffffff1660e01b815260040160206040518083038186803b1580156111a457600080fd5b505afa1580156111b8573d6000803e3d6000fd5b505050506040513d601f19601f820116820180604052508101906111dc9190612989565b5b905060008173ffffffffffffffffffffffffffffffffffffffff166370a08231306040518263ffffffff1660e01b815260040161121a9190612f5d565b60206040518083038186803b15801561123257600080fd5b505afa158015611246573d6000803e3d6000fd5b505050506040513d601f19601f8201168201806040525081019061126a9190612b0b565b9050809250505090565b600560009054906101000a900473ffffffffffffffffffffffffffffffffffffffff1673ffffffffffffffffffffffffffffffffffffffff1663095ea7b3600460009054906101000a900473ffffffffffffffffffffffffffffffffffffffff16836040518363ffffffff1660e01b81526004016112f3929190613002565b602060405180830381600087803b15801561130d57600080fd5b505af1158015611321573d6000803e3d6000fd5b505050506040513d601f19601f8201168201806040525081019061134591906129ee565b5060006040518061010001604052808473ffffffffffffffffffffffffffffffffffffffff168152602001600560009054906101000a900473ffffffffffffffffffffffffffffffffffffffff1673ffffffffffffffffffffffffffffffffffffffff168573ffffffffffffffffffffffffffffffffffffffff161461146a57600260009054906101000a900473ffffffffffffffffffffffffffffffffffffffff1673ffffffffffffffffffffffffffffffffffffffff1663d21220a76040518163ffffffff1660e01b815260040160206040518083038186803b15801561142d57600080fd5b505afa158015611441573d6000803e3d6000fd5b505050506040513d601f19601f820116820180604052508101906114659190612989565b61150b565b600260009054906101000a900473ffffffffffffffffffffffffffffffffffffffff1673ffffffffffffffffffffffffffffffffffffffff16630dfe16816040518163ffffffff1660e01b815260040160206040518083038186803b1580156114d257600080fd5b505afa1580156114e6573d6000803e3d6000fd5b505050506040513d601f19601f8201168201806040525081019061150a9190612989565b5b73ffffffffffffffffffffffffffffffffffffffff168152602001600260009054906101000a900473ffffffffffffffffffffffffffffffffffffffff1673ffffffffffffffffffffffffffffffffffffffff1663ddca3f436040518163ffffffff1660e01b815260040160206040518083038186803b15801561158e57600080fd5b505afa1580156115a2573d6000803e3d6000fd5b505050506040513d601f19601f820116820180604052508101906115c69190612ab9565b62ffffff1681526020013073ffffffffffffffffffffffffffffffffffffffff16815260200142815260200183815260200160008152602001600073ffffffffffffffffffffffffffffffffffffffff1681525090506000600460009054906101000a900473ffffffffffffffffffffffffffffffffffffffff1673ffffffffffffffffffffffffffffffffffffffff1663414bf389836040518263ffffffff1660e01b81526004016116799190613061565b602060405180830381600087803b15801561169357600080fd5b505af11580156116a7573d6000803e3d6000fd5b505050506040513d601f19601f820116820180604052508101906116cb9190612b0b565b90506116d6816124c8565b60006040518060c0016040528060075481526020018381526020016116f9611725565b8152602001600081526020016000815260200142815250905061171b8161062d565b5050505050505050565b6000600560009054906101000a900473ffffffffffffffffffffffffffffffffffffffff1673ffffffffffffffffffffffffffffffffffffffff166370a08231306040518263ffffffff1660e01b81526004016117829190612f5d565b60206040518083038186803b15801561179a57600080fd5b505afa1580156117ae573d6000803e3d6000fd5b505050506040513d601f19601f820116820180604052508101906117d29190612b0b565b905090565b600560009054906101000a900473ffffffffffffffffffffffffffffffffffffffff1673ffffffffffffffffffffffffffffffffffffffff1663d0e30db0346040518263ffffffff1660e01b81526004016000604051808303818588803b15801561184157600080fd5b505af1158015611855573d6000803e3d6000fd5b5050505050600560009054906101000a900473ffffffffffffffffffffffffffffffffffffffff1673ffffffffffffffffffffffffffffffffffffffff1663095ea7b3600460009054906101000a900473ffffffffffffffffffffffffffffffffffffffff16836040518363ffffffff1660e01b81526004016118d9929190613002565b602060405180830381600087803b1580156118f357600080fd5b505af1158015611907573d6000803e3d6000fd5b505050506040513d601f19601f8201168201806040525081019061192b91906129ee565b506000604051806101000160405280600260009054906101000a900473ffffffffffffffffffffffffffffffffffffffff1673ffffffffffffffffffffffffffffffffffffffff1663d21220a76040518163ffffffff1660e01b815260040160206040518083038186803b1580156119a257600080fd5b505afa1580156119b6573d6000803e3d6000fd5b505050506040513d601f19601f820116820180604052508101906119da9190612989565b73ffffffffffffffffffffffffffffffffffffffff168152602001600260009054906101000a900473ffffffffffffffffffffffffffffffffffffffff1673ffffffffffffffffffffffffffffffffffffffff16630dfe16816040518163ffffffff1660e01b815260040160206040518083038186803b158015611a5d57600080fd5b505afa158015611a71573d6000803e3d6000fd5b505050506040513d601f19601f82011682018060405250810190611a959190612989565b73ffffffffffffffffffffffffffffffffffffffff168152602001600260009054906101000a900473ffffffffffffffffffffffffffffffffffffffff1673ffffffffffffffffffffffffffffffffffffffff1663ddca3f436040518163ffffffff1660e01b815260040160206040518083038186803b158015611b1857600080fd5b505afa158015611b2c573d6000803e3d6000fd5b505050506040513d601f19601f82011682018060405250810190611b509190612ab9565b62ffffff1681526020013073ffffffffffffffffffffffffffffffffffffffff16815260200142815260200183815260200160008152602001600073ffffffffffffffffffffffffffffffffffffffff1681525090506000600460009054906101000a900473ffffffffffffffffffffffffffffffffffffffff1673ffffffffffffffffffffffffffffffffffffffff1663414bf389836040518263ffffffff1660e01b8152600401611c039190613061565b602060405180830381600087803b158015611c1d57600080fd5b505af1158015611c31573d6000803e3d6000fd5b505050506040513d601f19601f82011682018060405250810190611c559190612b0b565b9050611ccc6040518060400160405280600881526020017f7377617070656420000000000000000000000000000000000000000000000000815250846040518060400160405280600381526020017f6574680000000000000000000000000000000000000000000000000000000000815250612561565b611d416040518060400160405280600981526020017f7265636569766564200000000000000000000000000000000000000000000000815250826040518060400160405280600481526020017f7573646300000000000000000000000000000000000000000000000000000000815250612561565b60006040518060c001604052806007548152602001838152602001611d64611725565b81526020016000815260200160008152602001428152509050611d868161062d565b50505050505050565b6000670de0b6b3a764000090506000600260009054906101000a900473ffffffffffffffffffffffffffffffffffffffff1673ffffffffffffffffffffffffffffffffffffffff1663ddca3f436040518163ffffffff1660e01b815260040160206040518083038186803b158015611e0657600080fd5b505afa158015611e1a573d6000803e3d6000fd5b505050506040513d601f19601f82011682018060405250810190611e3e9190612ab9565b90506000600360009054906101000a900473ffffffffffffffffffffffffffffffffffffffff1673ffffffffffffffffffffffffffffffffffffffff1663f7729d43600260009054906101000a900473ffffffffffffffffffffffffffffffffffffffff1673ffffffffffffffffffffffffffffffffffffffff1663d21220a76040518163ffffffff1660e01b815260040160206040518083038186803b158015611ee857600080fd5b505afa158015611efc573d6000803e3d6000fd5b505050506040513d601f19601f82011682018060405250810190611f209190612989565b600260009054906101000a900473ffffffffffffffffffffffffffffffffffffffff1673ffffffffffffffffffffffffffffffffffffffff16630dfe16816040518163ffffffff1660e01b815260040160206040518083038186803b158015611f8857600080fd5b505afa158015611f9c573d6000803e3d6000fd5b505050506040513d601f19601f82011682018060405250810190611fc09190612989565b8587866040518663ffffffff1660e01b8152600401611fe3959493929190612faf565b602060405180830381600087803b158015611ffd57600080fd5b505af1158015612011573d6000803e3d6000fd5b505050506040513d601f19601f820116820180604052508101906120359190612b0b565b600b81905550505050565b6000600260009054906101000a900473ffffffffffffffffffffffffffffffffffffffff1673ffffffffffffffffffffffffffffffffffffffff16630dfe16816040518163ffffffff1660e01b815260040160206040518083038186803b1580156120aa57600080fd5b505afa1580156120be573d6000803e3d6000fd5b505050506040513d601f19601f820116820180604052508101906120e29190612989565b905090565b60008173ffffffffffffffffffffffffffffffffffffffff166370a08231306040518263ffffffff1660e01b81526004016121229190612f5d565b60206040518083038186803b15801561213a57600080fd5b505afa15801561214e573d6000803e3d6000fd5b505050506040513d601f19601f820116820180604052508101906121729190612b0b565b9050919050565b60075481565b6000600c60003373ffffffffffffffffffffffffffffffffffffffff1673ffffffffffffffffffffffffffffffffffffffff16815260200190815260200160002060000160008373ffffffffffffffffffffffffffffffffffffffff1673ffffffffffffffffffffffffffffffffffffffff168152602001908152602001600020549050919050565b600a5481565b600b5481565b61230f816040516024018080602001828103825283818151815260200191508051906020019080838360005b8381101561225b578082015181840152602081019050612240565b50505050905090810190601f1680156122885780820380516001836020036101000a031916815260200191505b50925050506040516020818303038152906040527f41304fac000000000000000000000000000000000000000000000000000000007bffffffffffffffffffffffffffffffffffffffffffffffffffffffff19166020820180517bffffffffffffffffffffffffffffffffffffffffffffffffffffffff83818316178352505050506126d6565b50565b61241582826040516024018080602001838152602001828103825284818151815260200191508051906020019080838360005b83811015612360578082015181840152602081019050612345565b50505050905090810190601f16801561238d5780820380516001836020036101000a031916815260200191505b5093505050506040516020818303038152906040527f9710a9d0000000000000000000000000000000000000000000000000000000007bffffffffffffffffffffffffffffffffffffffffffffffffffffffff19166020820180517bffffffffffffffffffffffffffffffffffffffffffffffffffffffff83818316178352505050506126d6565b5050565b6124c581604051602401808273ffffffffffffffffffffffffffffffffffffffff1681526020019150506040516020818303038152906040527f2c2ecbc2000000000000000000000000000000000000000000000000000000007bffffffffffffffffffffffffffffffffffffffffffffffffffffffff19166020820180517bffffffffffffffffffffffffffffffffffffffffffffffffffffffff83818316178352505050506126d6565b50565b61255e81604051602401808281526020019150506040516020818303038152906040527ff5b1bba9000000000000000000000000000000000000000000000000000000007bffffffffffffffffffffffffffffffffffffffffffffffffffffffff19166020820180517bffffffffffffffffffffffffffffffffffffffffffffffffffffffff83818316178352505050506126d6565b50565b6126d1838383604051602401808060200184815260200180602001838103835286818151815260200191508051906020019080838360005b838110156125b4578082015181840152602081019050612599565b50505050905090810190601f1680156125e15780820380516001836020036101000a031916815260200191505b50838103825284818151815260200191508051906020019080838360005b8381101561261a5780820151818401526020810190506125ff565b50505050905090810190601f1680156126475780820380516001836020036101000a031916815260200191505b50955050505050506040516020818303038152906040527fa3f5c739000000000000000000000000000000000000000000000000000000007bffffffffffffffffffffffffffffffffffffffffffffffffffffffff19166020820180517bffffffffffffffffffffffffffffffffffffffffffffffffffffffff83818316178352505050506126d6565b505050565b60008151905060006a636f6e736f6c652e6c6f679050602083016000808483855afa5050505050565b60008135905061270e8161324f565b92915050565b6000815190506127238161324f565b92915050565b60008151905061273881613266565b92915050565b60008135905061274d8161327d565b92915050565b600060c0828403121561276557600080fd5b61276f60c0613166565b9050600061277f84828501612936565b600083015250602061279384828501612936565b60208301525060406127a784828501612936565b60408301525060606127bb84828501612936565b60608301525060806127cf84828501612936565b60808301525060a06127e384828501612936565b60a08301525092915050565b6000610160828403121561280257600080fd5b61280d610160613166565b9050600061281d848285016126ff565b6000830152506020612831848285016126ff565b60208301525060406128458482850161290c565b60408301525060606128598482850161273e565b606083015250608061286d8482850161273e565b60808301525060a061288184828501612936565b60a08301525060c061289584828501612936565b60c08301525060e06128a984828501612936565b60e0830152506101006128be84828501612936565b610100830152506101206128d4848285016126ff565b610120830152506101406128ea84828501612936565b6101408301525092915050565b60008151905061290681613294565b92915050565b60008135905061291b816132ab565b92915050565b600081519050612930816132ab565b92915050565b600081359050612945816132c2565b92915050565b60008151905061295a816132c2565b92915050565b60006020828403121561297257600080fd5b6000612980848285016126ff565b91505092915050565b60006020828403121561299b57600080fd5b60006129a984828501612714565b91505092915050565b600080604083850312156129c557600080fd5b60006129d3858286016126ff565b92505060206129e485828601612936565b9150509250929050565b600060208284031215612a0057600080fd5b6000612a0e84828501612729565b91505092915050565b600060c08284031215612a2957600080fd5b6000612a3784828501612753565b91505092915050565b60006101608284031215612a5357600080fd5b6000612a61848285016127ef565b91505092915050565b600080600060608486031215612a7f57600080fd5b6000612a8d868287016128f7565b9350506020612a9e8682870161294b565b9250506040612aaf8682870161294b565b9150509250925092565b600060208284031215612acb57600080fd5b6000612ad984828501612921565b91505092915050565b600060208284031215612af457600080fd5b6000612b0284828501612936565b91505092915050565b600060208284031215612b1d57600080fd5b6000612b2b8482850161294b565b91505092915050565b60008060008060808587031215612b4a57600080fd5b6000612b588782880161294b565b9450506020612b69878288016128f7565b9350506040612b7a8782880161294b565b9250506060612b8b8782880161294b565b91505092959194509250565b60008060408385031215612baa57600080fd5b6000612bb88582860161294b565b9250506020612bc98582860161294b565b9150509250929050565b612bdc81613217565b82525050565b612beb81613197565b82525050565b612bfa81613197565b82525050565b612c09816131b5565b82525050565b608082016000820151612c256000850182612f24565b506020820151612c386020850182612be2565b506040820151612c4b6040850182612eca565b506060820151612c5e6060850182612eca565b50505050565b60a082016000820151612c7a6000850182612f24565b506020820151612c8d6020850182612eca565b506040820151612ca06040850182612f24565b506060820151612cb36060850182612f24565b506080820151612cc66080850182612f24565b50505050565b61010082016000820151612ce36000850182612be2565b506020820151612cf66020850182612be2565b506040820151612d096040850182612f06565b506060820151612d1c6060850182612be2565b506080820151612d2f6080850182612f24565b5060a0820151612d4260a0850182612f24565b5060c0820151612d5560c0850182612f24565b5060e0820151612d6860e0850182612ee8565b50505050565b60c082016000820151612d846000850182612f24565b506020820151612d976020850182612f24565b506040820151612daa6040850182612f24565b506060820151612dbd6060850182612f24565b506080820151612dd06080850182612f24565b5060a0820151612de360a0850182612f24565b50505050565b61016082016000820151612e006000850182612be2565b506020820151612e136020850182612be2565b506040820151612e266040850182612f06565b506060820151612e396060850182612c00565b506080820151612e4c6080850182612c00565b5060a0820151612e5f60a0850182612f24565b5060c0820151612e7260c0850182612f24565b5060e0820151612e8560e0850182612f24565b50610100820151612e9a610100850182612f24565b50610120820151612eaf610120850182612be2565b50610140820151612ec4610140850182612f24565b50505050565b612ed3816131c2565b82525050565b612ee2816131c2565b82525050565b612ef1816131de565b82525050565b612f00816131de565b82525050565b612f0f816131fe565b82525050565b612f1e816131fe565b82525050565b612f2d8161320d565b82525050565b612f3c8161320d565b82525050565b6000602082019050612f576000830184612bf1565b92915050565b6000602082019050612f726000830184612bd3565b92915050565b6000606082019050612f8d6000830186612bd3565b612f9a6020830185612bd3565b612fa76040830184612f33565b949350505050565b600060a082019050612fc46000830188612bf1565b612fd16020830187612bf1565b612fde6040830186612f15565b612feb6060830185612f33565b612ff86080830184612ef7565b9695505050505050565b60006040820190506130176000830185612bf1565b6130246020830184612f33565b9392505050565b60006080820190506130406000830184612c0f565b92915050565b600060a08201905061305b6000830184612c64565b92915050565b6000610100820190506130776000830184612ccc565b92915050565b600060c0820190506130926000830184612d6e565b92915050565b6000610160820190506130ae6000830184612de9565b92915050565b60006020820190506130c96000830184612ed9565b92915050565b60006060820190506130e46000830186612ed9565b6130f16020830185612f33565b6130fe6040830184612f33565b949350505050565b600060208201905061311b6000830184612f33565b92915050565b60006080820190506131366000830187612f33565b6131436020830186612ed9565b6131506040830185612f33565b61315d6060830184612f33565b95945050505050565b6000604051905081810181811067ffffffffffffffff8211171561318d5761318c61324d565b5b8060405250919050565b60006131a2826131de565b9050919050565b60008115159050919050565b60008160020b9050919050565b60006fffffffffffffffffffffffffffffffff82169050919050565b600073ffffffffffffffffffffffffffffffffffffffff82169050919050565b600062ffffff82169050919050565b6000819050919050565b600061322282613229565b9050919050565b60006132348261323b565b9050919050565b6000613246826131de565b9050919050565bfe5b61325881613197565b811461326357600080fd5b50565b61326f816131a9565b811461327a57600080fd5b50565b613286816131b5565b811461329157600080fd5b50565b61329d816131c2565b81146132a857600080fd5b50565b6132b4816131fe565b81146132bf57600080fd5b50565b6132cb8161320d565b81146132d657600080fd5b5056fea26469706673582212204a65a34dbee92eadad4a97b42a6c43f8394840d644920af5b8b3f28ca11c166864736f6c63430007060033",
  "linkReferences": {},
  "deployedLinkReferences": {}
}