{
  "_format": "hh-sol-artifact-1",
  "contractName": "LiquidityPro",
  "sourceName": "contracts/LiquidityPro.sol",
  "abi": [
    {
      "inputs": [
        {
          "internalType": "contract IUniswapV3Factory",
          "name": "_factory",
          "type": "address"
        },
        {
          "internalType": "contract INonfungiblePositionManager",
          "name": "_nonfungiblePositionManager",
          "type": "address"
        },
        {
          "internalType": "contract IUniswapV3Pool",
          "name": "_pool",
          "type": "address"
        }
      ],
      "stateMutability": "nonpayable",
      "type": "constructor"
    },
    {
      "inputs": [],
      "name": "createPosition",
      "outputs": [
        {
          "internalType": "uint256",
          "name": "tokenId",
          "type": "uint256"
        },
        {
          "internalType": "uint128",
          "name": "liquidity",
          "type": "uint128"
        },
        {
          "internalType": "uint256",
          "name": "amount0",
          "type": "uint256"
        },
        {
          "internalType": "uint256",
          "name": "amount1",
          "type": "uint256"
        }
      ],
      "stateMutability": "nonpayable",
      "type": "function"
    },
    {
      "inputs": [],
      "name": "getEthBalance",
      "outputs": [
        {
          "internalType": "uint256",
          "name": "",
          "type": "uint256"
        }
      ],
      "stateMutability": "view",
      "type": "function"
    },
    {
      "inputs": [],
      "name": "getToken0",
      "outputs": [
        {
          "internalType": "address",
          "name": "",
          "type": "address"
        }
      ],
      "stateMutability": "view",
      "type": "function"
    },
    {
      "inputs": [],
      "name": "getToken1",
      "outputs": [
        {
          "internalType": "address",
          "name": "",
          "type": "address"
        }
      ],
      "stateMutability": "view",
      "type": "function"
    },
    {
      "inputs": [],
      "name": "getTokenBalance",
      "outputs": [
        {
          "internalType": "uint256",
          "name": "",
          "type": "uint256"
        }
      ],
      "stateMutability": "view",
      "type": "function"
    },
    {
      "inputs": [],
      "name": "getTotalLiquidity",
      "outputs": [
        {
          "internalType": "uint256",
          "name": "",
          "type": "uint256"
        }
      ],
      "stateMutability": "view",
      "type": "function"
    },
    {
      "inputs": [],
      "name": "getWethBalance",
      "outputs": [
        {
          "internalType": "uint256",
          "name": "",
          "type": "uint256"
        }
      ],
      "stateMutability": "view",
      "type": "function"
    },
    {
      "inputs": [],
      "name": "totalLiquidity",
      "outputs": [
        {
          "internalType": "uint128",
          "name": "",
          "type": "uint128"
        }
      ],
      "stateMutability": "view",
      "type": "function"
    },
    {
      "inputs": [],
      "name": "vaultTokenId",
      "outputs": [
        {
          "internalType": "uint256",
          "name": "",
          "type": "uint256"
        }
      ],
      "stateMutability": "view",
      "type": "function"
    },
    {
      "inputs": [],
      "name": "withdraw",
      "outputs": [],
      "stateMutability": "nonpayable",
      "type": "function"
    },
    {
      "stateMutability": "payable",
      "type": "receive"
    }
  ],
  "bytecode": "0x608060405273c02aaa39b223fe8d0a0e5c4f27ead9083c756cc2600560006101000a81548173ffffffffffffffffffffffffffffffffffffffff021916908373ffffffffffffffffffffffffffffffffffffffff1602179055503480156200006657600080fd5b5060405162001d0638038062001d0683398181016040528101906200008c919062000319565b620000d76040518060400160405280601681526020017f4465706c6f79696e67204c697175697469647950726f00000000000000000000815250620001a260201b6200103f1760201c565b826000806101000a81548173ffffffffffffffffffffffffffffffffffffffff021916908373ffffffffffffffffffffffffffffffffffffffff16021790555081600160006101000a81548173ffffffffffffffffffffffffffffffffffffffff021916908373ffffffffffffffffffffffffffffffffffffffff16021790555080600260006101000a81548173ffffffffffffffffffffffffffffffffffffffff021916908373ffffffffffffffffffffffffffffffffffffffff1602179055505050506200042d565b620002a8816040516024018080602001828103825283818151815260200191508051906020019080838360005b83811015620001ec578082015181840152602081019050620001cf565b50505050905090810190601f1680156200021a5780820380516001836020036101000a031916815260200191505b50925050506040516020818303038152906040527f41304fac000000000000000000000000000000000000000000000000000000007bffffffffffffffffffffffffffffffffffffffffffffffffffffffff19166020820180517bffffffffffffffffffffffffffffffffffffffffffffffffffffffff8381831617835250505050620002ab60201b60201c565b50565b60008151905060006a636f6e736f6c652e6c6f679050602083016000808483855afa5050505050565b600081519050620002e581620003df565b92915050565b600081519050620002fc81620003f9565b92915050565b600081519050620003138162000413565b92915050565b6000806000606084860312156200032f57600080fd5b60006200033f86828701620002eb565b93505060206200035286828701620002d4565b9250506040620003658682870162000302565b9150509250925092565b60006200037c82620003bf565b9050919050565b600062000390826200036f565b9050919050565b6000620003a4826200036f565b9050919050565b6000620003b8826200036f565b9050919050565b600073ffffffffffffffffffffffffffffffffffffffff82169050919050565b620003ea8162000383565b8114620003f657600080fd5b50565b620004048162000397565b81146200041057600080fd5b50565b6200041e81620003ab565b81146200042a57600080fd5b50565b6118c9806200043d6000396000f3fe6080604052600436106100955760003560e01c806382b2e2571161005957806382b2e257146101e75780639ab89f48146102125780639dd58b5814610240578063ba94a3151461026b578063f657a7fe146102965761011f565b806315770f921461012457806335c7e9251461014f5780633ccfd60b1461017a5780636f26a7101461019157806370ed0ada146101bc5761011f565b3661011f57600560009054906101000a900473ffffffffffffffffffffffffffffffffffffffff1673ffffffffffffffffffffffffffffffffffffffff1663d0e30db0346040518263ffffffff1660e01b81526004016000604051808303818588803b15801561010457600080fd5b505af1158015610118573d6000803e3d6000fd5b5050505050005b600080fd5b34801561013057600080fd5b506101396102c1565b60405161014691906116ef565b60405180910390f35b34801561015b57600080fd5b506101646102e3565b604051610171919061170a565b60405180910390f35b34801561018657600080fd5b5061018f61031b565b005b34801561019d57600080fd5b506101a66105fd565b6040516101b3919061163e565b60405180910390f35b3480156101c857600080fd5b506101d16106a4565b6040516101de919061170a565b60405180910390f35b3480156101f357600080fd5b506101fc6106ac565b604051610209919061170a565b60405180910390f35b34801561021e57600080fd5b50610227610972565b6040516102379493929190611725565b60405180910390f35b34801561024c57600080fd5b50610255610ee0565b604051610262919061170a565b60405180910390f35b34801561027757600080fd5b50610280610f92565b60405161028d919061163e565b60405180910390f35b3480156102a257600080fd5b506102ab611039565b6040516102b8919061170a565b60405180910390f35b600660009054906101000a90046fffffffffffffffffffffffffffffffff1681565b6000600660009054906101000a90046fffffffffffffffffffffffffffffffff166fffffffffffffffffffffffffffffffff16905090565b61035c6040518060400160405280600c81526020017f7661756c74546f6b656e4964000000000000000000000000000000000000000081525060075461113d565b6103cb6040518060400160405280600f81526020017f746f74616c204c69717569646974790000000000000000000000000000000000815250600660009054906101000a90046fffffffffffffffffffffffffffffffff166fffffffffffffffffffffffffffffffff1661113d565b60006040518060a001604052806007548152602001600660009054906101000a90046fffffffffffffffffffffffffffffffff166fffffffffffffffffffffffffffffffff16815260200160008152602001600081526020016201518042018152509050600080600160009054906101000a900473ffffffffffffffffffffffffffffffffffffffff1673ffffffffffffffffffffffffffffffffffffffff16630c49ccbe846040518263ffffffff1660e01b815260040161048d91906116b8565b6040805180830381600087803b1580156104a657600080fd5b505af11580156104ba573d6000803e3d6000fd5b505050506040513d601f19601f820116820180604052508101906104de91906113dd565b915091506000604051806080016040528060075481526020013073ffffffffffffffffffffffffffffffffffffffff168152602001846fffffffffffffffffffffffffffffffff168152602001836fffffffffffffffffffffffffffffffff168152509050600160009054906101000a900473ffffffffffffffffffffffffffffffffffffffff1673ffffffffffffffffffffffffffffffffffffffff1663fc6f7865826040518263ffffffff1660e01b815260040161059e919061169d565b6040805180830381600087803b1580156105b757600080fd5b505af11580156105cb573d6000803e3d6000fd5b505050506040513d601f19601f820116820180604052508101906105ef91906113dd565b809350819450505050505050565b6000600260009054906101000a900473ffffffffffffffffffffffffffffffffffffffff1673ffffffffffffffffffffffffffffffffffffffff1663d21220a76040518163ffffffff1660e01b815260040160206040518083038186803b15801561066757600080fd5b505afa15801561067b573d6000803e3d6000fd5b505050506040513d601f19601f8201168201806040525081019061069f91906112d6565b905090565b600047905090565b60008073c02aaa39b223fe8d0a0e5c4f27ead9083c756cc273ffffffffffffffffffffffffffffffffffffffff16600260009054906101000a900473ffffffffffffffffffffffffffffffffffffffff1673ffffffffffffffffffffffffffffffffffffffff16630dfe16816040518163ffffffff1660e01b815260040160206040518083038186803b15801561074257600080fd5b505afa158015610756573d6000803e3d6000fd5b505050506040513d601f19601f8201168201806040525081019061077a91906112d6565b73ffffffffffffffffffffffffffffffffffffffff161461083a57600260009054906101000a900473ffffffffffffffffffffffffffffffffffffffff1673ffffffffffffffffffffffffffffffffffffffff16630dfe16816040518163ffffffff1660e01b815260040160206040518083038186803b1580156107fd57600080fd5b505afa158015610811573d6000803e3d6000fd5b505050506040513d601f19601f8201168201806040525081019061083591906112d6565b6108db565b600260009054906101000a900473ffffffffffffffffffffffffffffffffffffffff1673ffffffffffffffffffffffffffffffffffffffff1663d21220a76040518163ffffffff1660e01b815260040160206040518083038186803b1580156108a257600080fd5b505afa1580156108b6573d6000803e3d6000fd5b505050506040513d601f19601f820116820180604052508101906108da91906112d6565b5b905060008173ffffffffffffffffffffffffffffffffffffffff166370a08231306040518263ffffffff1660e01b81526004016109189190611659565b60206040518083038186803b15801561093057600080fd5b505afa158015610944573d6000803e3d6000fd5b505050506040513d601f19601f820116820180604052508101906109689190611351565b9050809250505090565b6000806000806000604051806101600160405280600260009054906101000a900473ffffffffffffffffffffffffffffffffffffffff1673ffffffffffffffffffffffffffffffffffffffff16630dfe16816040518163ffffffff1660e01b815260040160206040518083038186803b1580156109ee57600080fd5b505afa158015610a02573d6000803e3d6000fd5b505050506040513d601f19601f82011682018060405250810190610a2691906112d6565b73ffffffffffffffffffffffffffffffffffffffff168152602001600260009054906101000a900473ffffffffffffffffffffffffffffffffffffffff1673ffffffffffffffffffffffffffffffffffffffff1663d21220a76040518163ffffffff1660e01b815260040160206040518083038186803b158015610aa957600080fd5b505afa158015610abd573d6000803e3d6000fd5b505050506040513d601f19601f82011682018060405250810190610ae191906112d6565b73ffffffffffffffffffffffffffffffffffffffff168152602001600260009054906101000a900473ffffffffffffffffffffffffffffffffffffffff1673ffffffffffffffffffffffffffffffffffffffff1663ddca3f436040518163ffffffff1660e01b815260040160206040518083038186803b158015610b6457600080fd5b505afa158015610b78573d6000803e3d6000fd5b505050506040513d601f19601f82011682018060405250810190610b9c9190611328565b62ffffff1681526020016202fea460020b815260200162030cf060020b815260200164484e93952c81526020016806cf2b0d7a57d9189f815260200160008152602001600081526020013073ffffffffffffffffffffffffffffffffffffffff1681526020016201518042018152509050610c15610f92565b73ffffffffffffffffffffffffffffffffffffffff1663095ea7b3600160009054906101000a900473ffffffffffffffffffffffffffffffffffffffff167fffffffffffffffffffffffffffffffffffffffffffffffffffffffffffffffff6040518363ffffffff1660e01b8152600401610c91929190611674565b602060405180830381600087803b158015610cab57600080fd5b505af1158015610cbf573d6000803e3d6000fd5b505050506040513d601f19601f82011682018060405250810190610ce391906112ff565b50610cec6105fd565b73ffffffffffffffffffffffffffffffffffffffff1663095ea7b3600160009054906101000a900473ffffffffffffffffffffffffffffffffffffffff167fffffffffffffffffffffffffffffffffffffffffffffffffffffffffffffffff6040518363ffffffff1660e01b8152600401610d68929190611674565b602060405180830381600087803b158015610d8257600080fd5b505af1158015610d96573d6000803e3d6000fd5b505050506040513d601f19601f82011682018060405250810190610dba91906112ff565b50600160009054906101000a900473ffffffffffffffffffffffffffffffffffffffff1673ffffffffffffffffffffffffffffffffffffffff166388316456826040518263ffffffff1660e01b8152600401610e1691906116d3565b608060405180830381600087803b158015610e3057600080fd5b505af1158015610e44573d6000803e3d6000fd5b505050506040513d601f19601f82011682018060405250810190610e68919061137a565b8095508196508297508398505050505083600660008282829054906101000a90046fffffffffffffffffffffffffffffffff160192506101000a8154816fffffffffffffffffffffffffffffffff02191690836fffffffffffffffffffffffffffffffff160217905550846007819055505090919293565b6000600560009054906101000a900473ffffffffffffffffffffffffffffffffffffffff1673ffffffffffffffffffffffffffffffffffffffff166370a08231306040518263ffffffff1660e01b8152600401610f3d9190611659565b60206040518083038186803b158015610f5557600080fd5b505afa158015610f69573d6000803e3d6000fd5b505050506040513d601f19601f82011682018060405250810190610f8d9190611351565b905090565b6000600260009054906101000a900473ffffffffffffffffffffffffffffffffffffffff1673ffffffffffffffffffffffffffffffffffffffff16630dfe16816040518163ffffffff1660e01b815260040160206040518083038186803b158015610ffc57600080fd5b505afa158015611010573d6000803e3d6000fd5b505050506040513d601f19601f8201168201806040525081019061103491906112d6565b905090565b60075481565b61113a816040516024018080602001828103825283818151815260200191508051906020019080838360005b8381101561108657808201518184015260208101905061106b565b50505050905090810190601f1680156110b35780820380516001836020036101000a031916815260200191505b50925050506040516020818303038152906040527f41304fac000000000000000000000000000000000000000000000000000000007bffffffffffffffffffffffffffffffffffffffffffffffffffffffff19166020820180517bffffffffffffffffffffffffffffffffffffffffffffffffffffffff8381831617835250505050611244565b50565b61124082826040516024018080602001838152602001828103825284818151815260200191508051906020019080838360005b8381101561118b578082015181840152602081019050611170565b50505050905090810190601f1680156111b85780820380516001836020036101000a031916815260200191505b5093505050506040516020818303038152906040527f9710a9d0000000000000000000000000000000000000000000000000000000007bffffffffffffffffffffffffffffffffffffffffffffffffffffffff19166020820180517bffffffffffffffffffffffffffffffffffffffffffffffffffffffff8381831617835250505050611244565b5050565b60008151905060006a636f6e736f6c652e6c6f679050602083016000808483855afa5050505050565b60008151905061127c81611820565b92915050565b60008151905061129181611837565b92915050565b6000815190506112a68161184e565b92915050565b6000815190506112bb81611865565b92915050565b6000815190506112d08161187c565b92915050565b6000602082840312156112e857600080fd5b60006112f68482850161126d565b91505092915050565b60006020828403121561131157600080fd5b600061131f84828501611282565b91505092915050565b60006020828403121561133a57600080fd5b6000611348848285016112ac565b91505092915050565b60006020828403121561136357600080fd5b6000611371848285016112c1565b91505092915050565b6000806000806080858703121561139057600080fd5b600061139e878288016112c1565b94505060206113af87828801611297565b93505060406113c0878288016112c1565b92505060606113d1878288016112c1565b91505092959194509250565b600080604083850312156113f057600080fd5b60006113fe858286016112c1565b925050602061140f858286016112c1565b9150509250929050565b611422816117ea565b82525050565b6114318161176a565b82525050565b6114408161176a565b82525050565b61144f81611788565b82525050565b60808201600082015161146b6000850182611620565b50602082015161147e6020850182611428565b50604082015161149160408501826115f3565b5060608201516114a460608501826115f3565b50505050565b60a0820160008201516114c06000850182611620565b5060208201516114d360208501826115f3565b5060408201516114e66040850182611620565b5060608201516114f96060850182611620565b50608082015161150c6080850182611620565b50505050565b610160820160008201516115296000850182611428565b50602082015161153c6020850182611428565b50604082015161154f6040850182611611565b5060608201516115626060850182611446565b5060808201516115756080850182611446565b5060a082015161158860a0850182611620565b5060c082015161159b60c0850182611620565b5060e08201516115ae60e0850182611620565b506101008201516115c3610100850182611620565b506101208201516115d8610120850182611428565b506101408201516115ed610140850182611620565b50505050565b6115fc81611795565b82525050565b61160b81611795565b82525050565b61161a816117d1565b82525050565b611629816117e0565b82525050565b611638816117e0565b82525050565b60006020820190506116536000830184611437565b92915050565b600060208201905061166e6000830184611419565b92915050565b60006040820190506116896000830185611437565b611696602083018461162f565b9392505050565b60006080820190506116b26000830184611455565b92915050565b600060a0820190506116cd60008301846114aa565b92915050565b6000610160820190506116e96000830184611512565b92915050565b60006020820190506117046000830184611602565b92915050565b600060208201905061171f600083018461162f565b92915050565b600060808201905061173a600083018761162f565b6117476020830186611602565b611754604083018561162f565b611761606083018461162f565b95945050505050565b6000611775826117b1565b9050919050565b60008115159050919050565b60008160020b9050919050565b60006fffffffffffffffffffffffffffffffff82169050919050565b600073ffffffffffffffffffffffffffffffffffffffff82169050919050565b600062ffffff82169050919050565b6000819050919050565b60006117f5826117fc565b9050919050565b60006118078261180e565b9050919050565b6000611819826117b1565b9050919050565b6118298161176a565b811461183457600080fd5b50565b6118408161177c565b811461184b57600080fd5b50565b61185781611795565b811461186257600080fd5b50565b61186e816117d1565b811461187957600080fd5b50565b611885816117e0565b811461189057600080fd5b5056fea2646970667358221220cbacc93488290f7e64817375d4967e06a4df021ba4f9b7b7a0dd6f050e4bb18764736f6c63430007060033",
  "linkReferences": {},
  "deployedLinkReferences": {}
}